:020000040800F2
:1000000000200020CD3A0008BD360008BF360008A9
:1000100000000000000000000000000000000000E0
:10002000000000000000000000000000C1360008D1
:100030000000000000000000C3360008C5360008BC
:100040001D3B0008000000001D3B00081D3B000890
:100050001D3B00081D3B00081D3B00081D3B000820
:10006000000000001D3B00081D3B00081D3B000870
:10007000D1360008E13600081D3B000800000000F2
:100080001D3B0008F1360008000000001D3B000881
:100090001D3B00081D3B00081D3B00081D3B0008E0
:1000A0001D3B00081D3B00081D3B000801370008F0
:1000B0001D3B0008000000000000000000000000E0
:1000C00010B5064C2378002B07D1054B002B02D02E
:1000D000044800E000BF0123237010BD1000002081
:1000E000000000007C3B0008044B10B5002B03D03F
:1000F0000349044800E000BF10BDC04600000000F6
:10010000140000207C3B000802B4714649084900F5
:10011000095649008E4402BC7047C04602B471467D
:1001200049084900095C49008E4402BC7047C0463A
:10013000002243088B4274D303098B425FD3030A26
:100140008B4244D3030B8B4228D3030C8B420DD339
:10015000FF22090212BA030C8B4202D312120902C7
:1001600065D0030B8B4219D300E0090AC30B8B4205
:1001700001D3CB03C01A5241830B8B4201D38B03B3
:10018000C01A5241430B8B4201D34B03C01A524158
:10019000030B8B4201D30B03C01A5241C30A8B429B
:1001A00001D3CB02C01A5241830A8B4201D38B0286
:1001B000C01A5241430A8B4201D34B02C01A52412A
:1001C000030A8B4201D30B02C01A5241CDD2C3099C
:1001D0008B4201D3CB01C01A524183098B4201D318
:1001E0008B01C01A524143098B4201D34B01C01A03
:1001F000524103098B4201D30B01C01A5241C3087B
:100200008B4201D3CB00C01A524183088B4201D3E9
:100210008B00C01A524143088B4201D34B00C01AD5
:100220005241411A00D20146524110467047FFE741
:1002300001B5002000F006F802BDC0460029F7D045
:1002400076E770477047C0468446081C6146FFE762
:100250001FB500F073FB002801D40021C8421FBD68
:1002600010B500F005FB4042013010BD10B500F0A4
:1002700065FB002801DB002010BD012010BDC04639
:1002800010B500F05BFB002801DD002010BD01204F
:1002900010BDC04610B500F011FB002801DC0020A5
:1002A00010BD012010BDC04610B500F007FB0028AE
:1002B00001DA002010BD012010BDC046F0B5C646D1
:1002C0004E024702760A7B0A4400C50FF700480039
:1002D000984600B5240E2A00DB00000EC90FBC466C
:1002E0008D4267D0221A002A00DCA5E000283AD10E
:1002F000002F00D193E0511E002900D0BCE0012462
:10030000DB1B5A0146D59B019E09300001F010FA13
:1003100005388640844200DD9DE0041B3200202029
:100320000134E240041BA64033005E1EB3410024AA
:1003300013435A0704D00F221A40042A00D0043372
:100340005A0129D50134FF2C00D181E02A009B01FC
:100350005B0AE4B25B02E405580AD207204310436B
:1003600004BC9046F0BDFF2CE3D080213800C904C6
:10037000084384461B2A00DD82E020206146D140EC
:10038000821A604690400200501E82410A439B1A26
:100390005A01B8D45A07CED1DE082A00FF2C3AD130
:1003A000002E00D1AEE08023DB0333435B025B0A07
:1003B000FF24CFE7211A002952DD002831D0FF2C7D
:1003C000B7D080203E00C0040643B4461B2900DDA0
:1003D000AAE020266046C840711A66468E40310069
:1003E0004E1EB14101435B185901D3D50134FF2C96
:1003F00000D187E0012278491A405B080B40134383
:1004000097E7002C00D0A7E0002B00D0B6E03B1E01
:1004100062D10026002273025B0AE4B29AE714005C
:1004200087E7002F4DD0481E002857D16344012490
:100430005A01AFD50224DDE7002A24D1621CD2B2D2
:10044000012ADEDDDE1B720135D5FE1A0D005CE7E8
:100450002A0000237EE73300604A241A134068E72D
:10046000002963D1611CC8B201284EDDFF2949D0A3
:1004700063445B080C005CE7FF2A41D00A0079E77F
:1004800001229B1A84E7002C1DD0FF2822D0802453
:10049000E404524223431B2A00DD8AE01C0020258D
:1004A000D440AA1A93405A1E934123436246040043
:1004B000D31A0D0025E7002E00D026E700220024E5
:1004C000A9E70C0035E7002B4DD0D243002AEDD030
:1004D000FF28E0D16346FF240D002AE7FF290FD053
:1004E000010073E7002B61D0FF24002F00D120E72B
:1004F00080224146D203114202D0164200D13B0075
:10050000FF2416E7FF24002324E7002CEAD1002B68
:1005100058D0002F00D10CE763445A0100D439E7CA
:100520002E4A0C00134004E701215CE7002C1ED189
:10053000002B40D0C94300290BD0FF2836D01B29FF
:1005400047DC1C002026CC40711A8B40591E8B4181
:1005500023436344040047E7002B18D13B1E2DD0F2
:100560000D00FF24E5E63B0004000D00E1E6FF2856
:100570001CD08024E40449422343E0E7002F00D14B
:10058000D7E6DE1B72011FD5FB1A0D00D1E6FF2452
:10059000002F00D1CDE680224046D2031042AFD0DA
:1005A0001642ADD13B000D00FF24C2E66346FF2496
:1005B000BFE601237AE73B000400BAE6802600226A
:1005C000F603F0E63B00B4E6331E00D0E2E600227C
:1005D00021E70123BDE7C046FFFFFF7DFFFFFFFBD3
:1005E000F0B557464E46DE464546E0B54402430068
:1005F000C60F83B00F1C640A1B0EB24653D0FF2BEC
:1006000027D08022E400D20414437F225242904635
:100610009844002399469B467D027800FB0F6D0AA3
:10062000000E009324D0FF2846D080230021ED0047
:10063000DB041D437F384746381A4F460F43BF003F
:10064000B9463300009A874F53404A46BA5801933F
:100650009746002C4ED108239946F7339846FD3B28
:100660009B467D027800FB0F6D0A000E0093DAD1E5
:10067000002D26D1002001213300009A7A4F5340EB
:100680004246101A4A460A439200BA581D0097463D
:10069000009B2C009A468B465B46022B31D1534679
:1006A000FF21002438E0002C17D1042399460023B1
:1006B000984601339B46AFE7FF20002D0BD1022166
:1006C000DAE7280001F034F8431F9D4076235B42AF
:1006D000181A0021AFE70321ADE7200001F028F848
:1006E000431F9C4076235B421B1A98460023994681
:1006F0009B4691E70C239946F3339846FC3B9B4677
:100700008AE7032B00D1A5E05546012B00D081E0FC
:100710000123002100242B406402C905600ADB0785
:100720000843184303B03CBC90469946A246AB46EA
:10073000F0BD80240023E403FF21EDE7FF21002426
:10074000EAE70123591A1B2966DD019A13400021AB
:100750000024E1E78023DB031C4238D01D4251D046
:100760001C436402640A3300FF21D5E763016C0176
:10077000A3423BD21B260021013801251F0049005E
:100780005B00002F01DB9C4201D81B1B2943013E6B
:10079000002EF3D11C00631E9C410C4301007F31ED
:1007A0000029CEDD630704D00F232340042B00D0A3
:1007B0000434230103D501002C4B80311C40FE2959
:1007C0000DDD0123019AFF2113400024A4E78023BB
:1007D000DB031C436402640A3300FF219CE701230E
:1007E000019AA401640AC9B2134095E71B1B1A269B
:1007F0000121C2E7009B8B469A4600244CE7630226
:10080000E5D500258024E4032C436402640A009BA0
:10081000FF2181E70195C1E723002020CB40411A49
:100820008C40611E8C411C43630704D00F2323407E
:10083000042B00D00434630105D50123019A012162
:100840001340002468E70123019AA401640A1340BD
:10085000002161E78023DB031C436402640A5346E2
:10086000FF2159E7B43B0008F43B0008FFFFFFF706
:1008700070B5420045024E024C00C30F6D0A120EC5
:10088000760A240EC90F0120FF2A06D0FF2C03D0C0
:10089000A24201D1B54206D070BD002DFCD1FF2C83
:1008A000FAD1002EF8D18B4206D00120002AF3D1D4
:1008B0002800451EA841EFE70020EDE7F0B5420013
:1008C00045024C02C30F48006D0A120E640A000E66
:1008D000C90FFF2A1ED0FF2821D0002A0AD16E425C
:1008E0006E41F6B200280FD1002C0DD10020002D52
:1008F00009D005E0002801D1002C01D08B4211D095
:10090000012158420843F0BD002EF7D001200139E3
:100910000843F8E7002DDED002204042F3E7002C28
:10092000DBD0F9E78242EBDC04DBA542E8D800200B
:10093000A542E8D20121581E0843E4E7F0B5420081
:100940004D024C004602760A120EC30F6D0A240EA9
:10095000C90FFF2A16D0FF2C18D0002A0AD17042E6
:100960007041C0B2002C15D0002805D001200139FB
:100970000843F0BD002C13D0994214D001205B42F3
:100980001843F6E70220002EF3D1E4E70220002D01
:10099000EFD1E2E7002DE7D10020002EE9D0EDE70E
:1009A000002DE9D1EAE7A24206DCDFDBAE4203D844
:1009B0000020AE42DAD3DCE7012049420843D8E701
:1009C000F8B557464E464546DE46E0B54702460076
:1009D00088467F0A360EC40F002E47D0FF2E24D043
:1009E000FB008027FF041F43002399469A467F3E61
:1009F00043465D025800DB0F6D0A000E984643D057
:100A0000FF283BD0EB0080250022ED041D437F38FA
:100A10003618731C41469B464B46614013430F2BCF
:100A200064D875489B00C3589F46002F42D10823C5
:100A30009946063BFF269A46DAE74146022A28D025
:100A4000032A00D1CEE0012A00D0ACE01140002002
:100A50000022CCB24002D205400AE40710432043F2
:100A60003CBC90469946A246AB46F8BD002F15D136
:100A700004239946033B00269A46B9E7FF20022249
:100A8000002DC5D00322C3E7002D19D1002001227B
:100A9000BEE70124FF220C400020DBE7380000F015
:100AA00047FE7626431F9F4000237642361A99461A
:100AB0009A469DE70C239946093BFF269A4697E7FD
:100AC000280000F035FE431F9D4076235B42181A34
:100AD00000229DE780200024C003FF22BAE73D00EA
:100AE0005246ABE73D0021005246A7E73B0C9C462F
:100AF0002A04120C2B0C1400604665463F043F0C80
:100B00007C4342435D437B43270C9B18FF18BA424A
:100B100003D980235B029C46654424043A04240CD8
:100B2000121993015C1EA3413F0C920E7D191A43CA
:100B3000AD0115432B0104D501235E466A081D4013
:100B4000154332007F32002A25DD6B0704D00F23C6
:100B50002B40042B00D004352B0103D53200274B4A
:100B600080321D40FE2A94DC0124A801400AD2B242
:100B70000C406FE78020C003074207D0054205D133
:100B800028434002400A4446FF2263E738434002BC
:100B9000400AFF225EE70124A31A1B2B05DD0C404F
:100BA0000022002056E75E46CBE72A002020DA40EC
:100BB000C31A9D402B005D1EAB4113435A0704D05E
:100BC0000F221A40042A00D004335A0104D501240C
:100BD00001220C4000203DE701249B01580A0C40F3
:100BE000002237E780200124C00328434002400A46
:100BF0000C40FF222EE7C046343C0008FFFFFFF701
:100C0000F0B54F46D64646464400C0B5C20F47022F
:100C10004802400A844666467B0A4800C90F9A4645
:100C2000240E1500DB00000E8946F600FF2800D1D7
:100C30008FE001214F464F403900914266D0221A81
:100C4000002A00DC9DE000283DD1002E00D18BE081
:100C5000511E002900D0B5E001249B1B5A0144D548
:100C60009B019F09380000F063FD053887408442EE
:100C700000DD96E0041B3A0020200134E240041B12
:100C8000A7403B005F1EBB41002413435A0704D01A
:100C90000F221A40042A00D004335A0127D5013408
:100CA000FF2C00D179E001229B015B0AE4B22A40CB
:100CB0005B02E405580AD207204310431CBC90464F
:100CC0009946A246F0BDFF2CE0D08021C9040E4316
:100CD0001B2A7BDC31002020D140821A9640721EF4
:100CE00096410E439B1B5A01BAD45A07D0D1012218
:100CF000DF082A40FF2C33D1002F00D1A8E0802349
:100D0000DB033B435B025B0AFF24D1E7211A002986
:100D10004CDD00282AD0FF2CB8D08020C004064328
:100D20001B2900DDAFE030002027C840791A8E4033
:100D3000711E8E4106439B195901D6D50134FF2CF3
:100D400000D185E001227A491A405B080B40134329
:100D50009CE7002E00D070E76BE73B1EC5D1002258
:100D60007B025B0AE4B2A3E714008FE7002E4DD0AC
:100D7000481E002857D19B1901245A01B5D50224D9
:100D8000E0E7002A25D1621CD2B2012A72DD9F1B46
:100D90007A0135D5F71A0D0064E7012200232A40B5
:100DA00086E73B00634A241A13406FE700296CD1A1
:100DB000611CC8B201284EDDFF2949D09B195B0890
:100DC0000C0063E7FF2A41D00A0081E701269B1B44
:100DD00089E7002C1CD0FF2821D08024E404524253
:100DE00023431B2A00DD96E01C002025D440AA1ACC
:100DF00093405A1E93412343F31A04000D002DE73C
:100E0000002F00D02EE700220024A9E70C003DE7C8
:100E1000002B58D0D243002AEED0FF28E1D1330076
:100E2000FF240D0032E7FF2910D0010078E7002BE6
:100E30006ED0FF24002E00D128E780225146D20335
:100E4000114203D06146114200D13300FF241DE757
:100E5000FF2400232CE7002CE9D1002B63D0002EC7
:100E600000D113E79B195A0100D43EE7314A0C0028
:100E700013400BE7002C1ED1002B2FD1002E4FD09A
:100E800033000D0002E7012655E7002C1FD1002B8F
:100E900043D0C94300290BD0FF2839D01B2944DC9B
:100EA0001C002027CC40791A8B40591E8B412343CC
:100EB0009B19040040E7002B1AD1002E24D1802773
:100EC0000022FF031BE7330004000D00DEE6FF28CD
:100ED0001ED08024E40449422343DFE7002E00D1E2
:100EE000D4E69F1B7A0100D437E7F31A0D00CDE654
:100EF000FF24002E00D1C9E680225046D2031042C2
:100F0000A4D060461042A1D133000D00FF24BDE6FD
:100F10003300FF24BAE601236EE733000400B5E690
:100F2000002700221CE73300B0E60123C0E7C046DB
:100F3000FFFFFF7DFFFFFFFB41024300C20F490A95
:100F40001B0E00207E2B0DDD9D2B0CDC8020000471
:100F50000143952B0ADC9620C31AD9404842002A47
:100F600000D108007047034BD018FBE7963B99402F
:100F7000F4E7C046FFFFFF7FF8B54546DE4657461B
:100F80004E460C03E0B54E00C90F88460D00610ABD
:100F9000440F0C43C70019035800DB0F9B464B0A54
:100FA000510F0B43760D400D1900D200D84500D1EA
:100FB000AEE0351A002D00DCF6E000280FD1134317
:100FC00000D1DBE06B1E002B00D037E1BA1A97424C
:100FD000BF41641A7F42E41B0126170024E0C64B80
:100FE0009E424DD080231B041943382D00DD07E1BC
:100FF0001F2D00DD38E12020431B9A460B00504690
:101000008340994613004846EB401843030050467E
:101010008240501E8241E9401A43BA1A611A97422F
:10102000A441170064420C1B230262D56402650AC6
:10103000002D00D1DFE0280000F07AFB0300083B20
:101040001F2B00DDD2E020223C00D21A9D40D4406C
:101050009F4025439E4200DDC4E09E1B731C1F2B56
:1010600000DDF1E0202238002900D21AD84091405A
:1010700097402C000143781E8741DC4000260F4337
:101080007B0709D00F233B40042B05D03B1DBB42FF
:10109000BF417F42E4191F0023022CD5964B013635
:1010A0009E4200D19AE04546944BFF081C406007E1
:1010B000760564020743240B760D00212403230BDD
:1010C0000C0D8F4A24051C431440330523435B0059
:1010D000ED075B082B43380019003CBC904699464D
:1010E000A246AB46F8BD6446044300D111E20400B9
:1010F00067467B07C6D145466007FF080743E408FB
:101100007D4B9E4230D024037605240B760DD4E728
:10111000331A9A46002B78DD002831D07648864273
:10112000AED08020000401435346382B00DCE9E0B8
:101130000A43511E8A410021D219BA42BF410919FE
:101140007C4217000C192302D3D56B4B01369E420B
:1011500000D13AE10120694B1C407B0807401F4346
:10116000E007074364088BE723003B4300D1CBE152
:101170008022120314432403240B9EE72E007FE7F2
:101180000800104300D1B4E0581E002800D0DEE073
:10119000BA18BA429B4164185B42E4181700012652
:1011A0002302A6D50226D5E7002D6ED1701C40057E
:1011B000400D012800DCF9E0B81A844687428041DE
:1011C000E51A40422D1A280200D489E0D71BBA4202
:1011D00092411C1B5242A51AD84629E745460024D5
:1011E00000276AE7454CF61A2C4049E73D002838AD
:1011F000854000272EE7380000F09AFA20301DE7DE
:101200000A43511E8A41002107E7002B00D0F3E07A
:10121000701C43055B0D012B00DCADE0364B9842A2
:1012200000D1D1E0BA18BA42BF4164187F42E41934
:10123000E707520817436408060021E72E48854255
:1012400000D193E01D00D0E629001F3EF140202B85
:1012500000D18DE04022D31A9D402F437D1EAF4127
:1012600000240F43002644E72B000800203BD84011
:101270000300202D00D17DE04020451BA9400A43FA
:10128000511E8A4100211A43C7E6002E50D01A4E43
:10129000B04257D080266B429946360434434B46C1
:1012A000382B00DDD6E01F2B00DD35E12026F51AB6
:1012B0002600AE40B2463E00DE40AC463500564603
:1012C0002E436546AF407D1EAF41DC403743D71B00
:1012D000BA4292410C1B5242A41A0600D846A3E619
:1012E000644667462C4300D0A2E60025002600276E
:1012F00006E71E00C4E6C046FF070000FFFF7FFFB1
:10130000FFFF0F801F2B63DC2020C31A08009840CA
:101310009C46834653461000D84003005846184365
:1013200063469A40531E9A4153460243D94003E70D
:1013300026003E4306D0EB439946002BC7D0944E7F
:10134000B042ACD10C0017000600D84698E6904B8E
:101350009A450BD08246E7E6002800D09EE01800B0
:10136000104300D1E9E01C001700D846884E87E6FC
:10137000002572E7002182E723003B43002E00D0C6
:10138000ABE0002B00D1E7E00B00134300D177E680
:10139000BA18BA42BF4164187F42E419230200D44C
:1013A000F2E07C4B17001C40060069E62000384341
:1013B000002ED1D100285BD11C00144300D1A8E03D
:1013C0001C001700D8465BE606000024002797E6BD
:1013D00050460B002038C34099465346202B00D17D
:1013E00095E0402350461B1A99400A43511E8A41FA
:1013F0004B4600211A439FE6002E30D126003E4383
:1014000067D0DB439A46002B1CD0614EB04260D0BF
:101410005346382B00DD96E01F2B00DD9FE0202691
:10142000F31A26009E409C46B34653463E00DE40DB
:1014300033005E461E4363469F407B1E9F415346DA
:10144000DC403743BF189742924164185242A418B7
:10145000060078E627437C1EA741002437E74C4E60
:10146000B04236D080265B4236049A463443CFE7FA
:101470001800104300D103E6B81A84466745AD4111
:10148000E01A6D42401B050200D42CE6D71BBA427D
:1014900092411C1B5242A41AD846F1E51800104391
:1014A00000D163E7F808670707438020E4080003DA
:1014B000044208D0DD08054205D1D208590711437E
:1014C0000F002C00D8467B0FE4001C43FF00304E79
:1014D000D6E50C0017000600D2E5002B38D00B0033
:1014E000134300D142E7F808670707438020E40868
:1014F00000030442E7D0CB080342E4D1D2084907F5
:1015000011430F001C00DEE700270024D5E5002171
:101510006BE700250027F3E54E462500203EF54009
:101520004B462E00202B2DD04025ED1AAC402743F2
:101530007C1EA74100243743C9E6802400252403EC
:10154000134E0027DCE527437C1EA741002479E7E2
:101550000C0017000E4E93E50C00170090E5564660
:101560002300203EF34099465346202B0ED04023C3
:1015700056469B1B9C4027437C1EA7414B4600249C
:101580001F435FE70024D2E71700B2E50024F2E72B
:10159000FF070000FFFF7FFF70B5002830D0C317A2
:1015A000C4185C40C50F200000F0C2F8174B184A61
:1015B0001B1AD21A1F2A18DD164AD21A944000228A
:1015C00024035B05240B5B0D0021100024030A0D8E
:1015D000240B12052243104C1B05224013435B00D1
:1015E000ED075B082B43190070BD210091400A00F4
:1015F0000B21081AC4405B052403240B5B0DE3E7B1
:101600000025002300240022DEE7C0461E0400005F
:101610003304000013040000FFFF0F80F0B54C00FE
:10162000640D0B03621C450F5B0A52052B43C90F67
:10163000C500520D012A28DD3A4AA618FE2E1BDCF1
:10164000002E3EDD80010200501E82416D0F2A43B4
:10165000DB0013435A0704D00F221A40042A00D09B
:1016600004338022D2041A405AD00136FF2E03D010
:101670009B015B0AF4B201E0FF2400235802E40559
:10168000400AC90720430843F0BD002C07D01D4382
:10169000F2D08020DB0080040343FF26DAE72B43EF
:1016A00003D00523DB08FF2C03D05B025B0AE4B206
:1016B000E4E7002B32D08020C00303435B025B0AC7
:1016C000DCE73200173214DB80221E27120413439A
:1016D000BF1B1F2F0FDC144A944664442A00A54008
:1016E0002E00A340751EAE41FA403343134300263B
:1016F000B0E70024D5E702225242961B1A00F240BE
:10170000202F09D0094884466444A3402B435D1E22
:10171000AB41002613439DE70023F7E70023ADE725
:101720003400BFE780FCFFFF82FCFFFFA2FCFFFF4D
:101730001C2101231B04984201D3000C10391B0A01
:10174000984201D3000A08391B09984201D30009C5
:10175000043902A2105C40187047C046040302021C
:1017600001010101000000000000000010B500F0C0
:10177000CDF800F005F800F0D5F800F057F810BDEE
:10178000002210B5034B04491A600448013201F0ED
:101790006FFB10BD480000204C0000208C01002091
:1017A000F8B51C4DA84233D11B4C1C4E2368F25C8B
:1017B0000A2A25D1002001002060735C0D2B01D086
:1017C0000A2B15D1FFF7E8FE00220023FFF7D4FB18
:1017D000FFF724FF1249FEF703FF124F386038006D
:1017E00000F012F905221049280001F013FB09E06E
:1017F000303BDFB2092F05D8504301311818DCE720
:1018000001332360216801227118280001F030FBA8
:10181000F8BDC0468C010020480000204C0000208C
:101820000000C8422C0000200000002010B5024833
:1018300001F036F810BDC0460C010020002307B5AA
:1018400002680193034B9A4202D101A800F0DCF830
:1018500007BDC04600100040902010B50122802135
:10186000C00500F005FC10BD902010B501224021FC
:10187000C00500F0FDFB10BD10B5064C200001F0C6
:1018800003F8962223681201DA630821200001F090
:10189000EDF910BDCC00002070B50500054C20000E
:1018A00000F0F2FF23680821DD63200001F0DEF97B
:1018B00070BDC046CC00002010B5064C200000F0E2
:1018C000E3FF9622236812011A640C21200001F024
:1018D000CDF910BDCC00002070B50500054C2000EE
:1018E00000F0D2FF23680C211D64200001F0BEF936
:1018F00070BDC046CC00002010B501220421024872
:1019000000F0B6FB10BDC0460004004810B5FFF75C
:10191000A3FFFFF7A9FFFFF7AFFFFFF7CDFFFFF72B
:10192000EBFF10BD10B5064C200000F0ADFFF62215
:101930002368FF325A639A63DA631A6410BDC046A3
:101940004C01002070B504680E00201C10491500E1
:10195000FEF7A0FC002819D10E49201CFEF786FCDA
:10196000002800D00B4C0C49201CFFF729F80B492C
:10197000041CFFF745F9FFF7DFFA08493060201C27
:10198000FEF79CFCFFF7D8FA286070BD004CEAE730
:101990009A99593F9899193E0000FA430000204156
:1019A000F7B507000E001500164C0021200001932A
:1019B00001F082F90421200001F07EF908212000C5
:1019C00001F07AF90C21200001F076F923683A68D9
:1019D00000215A63326820009A632A68DA63019A08
:1019E00012681A6401F042F90421200001F03EF966
:1019F0000821200001F03AF90C21200001F036F90D
:101A0000F7BDC0464C010020FE21F8B500688905ED
:101A1000FEF754FCFC218905FEF7D2FF114E011C94
:101A20003060FE208005FFF7EBF80F4F0F4D104C94
:101A30003860290022003000FFF784FF0D4E380087
:101A400032000D49FFF77EFF2A00310023000A48CB
:101A5000FFF7A6FF2800FFF71FFF2000FFF73CFF5E
:101A6000F8BDC0466C000020780000207000002007
:101A700068000020740000206400002010B50400FD
:101A800000F0A6FDFA218900FEF752FB00F0F0F904
:101A9000012000222100404200F0B0F9002010BDDA
:101AA0001023064A10B5116800200B431360FFF79E
:101AB000E5FF01F0DBFD002010BDC0460020024024
:101AC000024A1368013313607047C0467C0000204F
:101AD000014B18687047C0467C000020F8B5040030
:101AE0000120002C72D0636C002B06D12200403202
:101AF000A3642000137001F0C5FC636CDB0600D505
:101B000079E0042223689868104000D073E0626C8A
:101B10004249114002220A43032162649A680A4042
:101B2000012A00D06DE01968114202D1DA6812046E
:101B300067D5DA683A49256A0A40DA60A2696F0314
:101B40009103E269D2031143626B013A561EB2411E
:101B50001603E268114322690F43022A00D10420D0
:101B6000226B616A52003A4332430243012904D195
:101B7000002D2CD1802149020A43C220A16AFF30E6
:101B8000814202D0E06A01430A438020D9684005BF
:101B90001143D960A16B814202D0481E062807D8A4
:101BA000072558692940A84358615869014359617C
:101BB000DB681C490B409A4211D100200322A0642B
:101BC000636C93431A00012313436364F8BD202020
:101BD000656C28436064A06C0143A164CDE71222C8
:101BE000636C012093431A00102313436364A36CB6
:101BF0000343A364EAE71023626C01201343636488
:101C0000E4E71821DA688A43A1680A43DA601969AF
:101C1000626889008908114319618AE7FDFEFFFFA8
:101C20001902FEFFE7FF3F837047704770470000CF
:101C30000422036870B519680400114202D0596883
:101C4000114206D108221968114228D05968114260
:101C500025D0626CD20604D48022616C92000A43C3
:101C60006264C022D9681201114212D1226A002A8C
:101C70000FD11A6812070CD59A6852073CD40C2170
:101C80005A688A435A60636C204A1A4001231343FE
:101C900063642000FFF7C8FF0C2223681A608025C8
:101CA00023681A682A420CD05B682B4209D0802333
:101CB000626C5B02134363642000FFF7B6FF236886
:101CC0001D60102223681968114214D0596811420E
:101CD00011D0626B012A02D0DA68D20708D502223D
:101CE000A16C20000A43A26410221A60FFF79EFF35
:101CF000102223681A6070BD2023626C1343636452
:101D00000123A26C1343A364C3E7C046FEFEFFFF9A
:101D1000F7B5002304000193403423780500022026
:101D2000012B2BD001232A68AE6B906823704007EB
:101D300052D42C484F680D6887423BD0AB40180006
:101D40008023976A5B05384390629E420FD0013E24
:101D5000062E0CD98B68072150690840834206D0B3
:101D600050690B40884350615069034353612B0015
:101D7000103B012B03D9002000232370FEBD1A4B1A
:101D800080221968102D13D0D2030A431A60102D37
:101D9000F1D1164B16491868FEF7CAF90A235843C1
:101DA0000190019B002BE6D0019B013B0193F8E7DA
:101DB0001204EAE7AB40916A99432B00103B916211
:101DC000012BD8D8084B1A68102D03D009490A40B6
:101DD0001A60D0E70849FAE72022696C18000A4324
:101DE0006A64C9E701100000082701400C000020C8
:101DF00040420F00FFFFBFFFFFFF7FFF70B589016B
:101E0000002814DA0F23C0B20340083B114A9B0894
:101E10009B009B18032210409040FC32150011409B
:101E200085408140DC69AC432143D96170BD032505
:101E300083082840A840FC352E00074A9B009B18C9
:101E4000C02286402940814092009C58B4432143DF
:101E50009950EBE700ED00E000E100E01F2318409F
:101E60001E3B8340014A13607047C04600E100E01A
:101E7000094A431E012093420DD8C021074A084851
:101E80005360036A09061B021B0A0B43036200200E
:101E90000723906013607047FFFFFF0010E000E031
:101EA00000ED00E0054B1A68042802D110431860C9
:101EB000704704218A431A60FAE7C04610E000E048
:101EC000704710B5FFF7FCFF10BD70B5841CE37FB1
:101ED000022B04D004238363033B180070BD0E2142
:101EE0000368056C1A688A431A60012219689143D5
:101EF00019601100A940C36B5960E2770024831870
:101F0000426BDC771300A242E7D090472300E4E75E
:101F1000F0B50B6887B0029300230191029ADA4072
:101F200001D107B0F0BD01229A4003920399029AB1
:101F30000A40009200D18CE0019A102152681600EC
:101F40008E43022E0ED107251D40AD000139A94058
:101F5000DC08A4000419276A8F4301990969A94084
:101F60000F43276203245F00BC40E4430568013E41
:101F70002540AC4603251540BD4061460D43056034
:101F8000012E0FD801998668CD682640BD403543A3
:101F900085604668039915098E4301210D409D40D7
:101FA00035434560C56801992C408D688021BD404E
:101FB00049052C43C4600A424BD00121264C03261C
:101FC000A5691E400D43A561A4699D080C400594B8
:101FD000059C0F242149AD00B6006D18B440902136
:101FE000AF68C905A743002488420CD01C490134BE
:101FF000884208D01B490134884204D01A4903346E
:10200000884200D1023CB44000993C430E00AC60D1
:10201000164CCD4327683E43D10301D43E002E40E9
:1020200026606768009E3E43910301D43E002E4027
:102030006660A768009E3E43D10201D43E002E4058
:10204000A660E668009F3743920201D42E40370015
:10205000E760013362E7C046001002400000014023
:102060000004004800080048000C0048000401403B
:10207000002A01D0816170478162FCE7F0B50368F6
:1020800085B00500DB072FD42B689B0700D581E0C6
:102090002B681B0700D5BCE02B685B0700D5DFE091
:1020A0002B68DB061AD56A69B54C0423012A00D0D7
:1020B0004BE1616B02260B436363636B1A436263FC
:1020C000FFF706FD0700636B334200D136E1F821CC
:1020D000626BAB698A43DB0013436363296A00299F
:1020E00000D059E1002013E00C21A54C62680A40A1
:1020F000042A06D063680B40082B0BD16368DB030E
:1021000008D523689B03BFD56B68002BBCD1012089
:1021100005B0F0BD6B68012B13D1802322685B02F0
:1021200013432360FFF7D4FC80260700B602236820
:102130003342A9D1FFF7CCFCC01B6428F7D9032098
:10214000E6E7002B16D123688E4A802613402360D1
:1021500023688D4AB60213402360FFF7B9FC0700DD
:102160002368334200D18FE7FFF7B2FCC01B64281D
:10217000F6D9E4E7052B05D180232268DB0213435F
:102180002360CAE723687F4A1340236023687E4A9E
:102190001340C6E70C227A4C6368134206D063688A
:1021A0001340082B10D16368DB030DD423689B0711
:1021B00002D5EB68012BAAD1F82122682B698A434A
:1021C000DB001343236063E7EA680123002A0FD092
:1021D0002268022613432360FFF77AFC0700236876
:1021E0003342E9D1FFF774FCC01B0228F7D9A6E7F8
:1021F000226802269A432260FFF76AFC07002368E0
:10220000334200D144E7FFF763FCC01B0228F6D934
:1022100095E7EA6901235A4C002A10D0626A022627
:1022200013436362FFF754FC0700636A334200D034
:1022300032E7FFF74DFCC01B0228F6D97FE7626A40
:1022400002269A436262FFF743FC0700636A334247
:1022500000D121E7FFF73CFCC01B0228F6D96EE74E
:1022600080220021464C5205E3690091134208D1B7
:10227000E3691343E361E36913400393039B012381
:1022800000938027414E7F0033683B4206D0AB6805
:10229000012B13D1226A1343236230E033683B439E
:1022A0003360FFF715FC019033683B42EFD1FFF735
:1022B0000FFC019BC01A6428F6D940E70122002BCD
:1022C00014D1236A022793432362236A0332934380
:1022D0002362FFF7FDFB0600236A3B4225D0FFF790
:1022E000F7FB2B4B801B9842F6D928E7052B0BD127
:1022F000216A013B0B432362236A1A432262FFF7E0
:10230000E7FB022706000DE0236A934304222362C1
:10231000236A9343C0E7FFF7DBFB1D4B801B98420A
:1023200000D90CE7236A3B42F5D0009B012B00D07B
:10233000B6E6E369174A1340E361B1E6FFF7C8FB6D
:10234000C01B022800D8BEE6F9E6053203D1626B55
:102350009A436263BBE6626B022613430122636306
:10236000636B93436363FFF7B3FB0700636B334215
:1023700000D1B3E6FFF7ACFBC01B0228F6D9DEE6BE
:1023800000100240FFFFFEFFFFFFFBFF0070004058
:1023900088130000FFFFFFEF0C22264C012063682A
:1023A0001340082B00D1B3E62368234A134023606F
:1023B00002292FD1FFF78CFB80260700B604236883
:1023C000334221D10F22E36A9343EA6A1343E36263
:1023D000696AAB6A62680B43184980250A40134357
:1023E0006360802322685B0413432360FFF770FB64
:1023F0000600AD0423682B4200D073E6FFF768FBAC
:10240000801B0228F6D99AE6FFF762FBC01B022860
:10241000D5D994E6FFF75CFB80250600AD04236860
:102420002B4200D15EE6FFF753FB801B0228F6D952
:1024300085E6C04600100240FFFFFFFEFFFFC2FF1F
:1024400070B5144C88B010222100684601F08CFB56
:10245000210004AD10221031280001F085FB0C2270
:102460000D4E73681A40082A11D10F206A46990C44
:102470000140545CF26A0240A95CDB0305D50748C1
:10248000FDF756FE604308B070BD0548FAE7034803
:10249000F9E7C046943B00080010024000127A00A1
:1024A00000093D00F7B50122434C060023680F00E8
:1024B00013408B421CD33268930723D4D30729D40B
:1024C000012322681A40974267D333683B4C5B076D
:1024D0006AD4FFF7B5FF6368394A1B061B0FD35C4C
:1024E000D840384B18600020FFF7C8FA002008E0F9
:1024F000236893430B432360236813409942DAD047
:102500000120FEBDF0202D494B688343B068034392
:102510004B60D3E7294D72682B68012A1AD19B03BF
:10252000EED503216B688B4313436B60FFF7D0FA42
:1025300073680190012B15D10C226B681340042B9A
:10254000BED0FFF7C5FA019BC01A1F4B9842F3D9C2
:102550000320D6E7022A02D19B01E2D4D0E79B07F1
:10256000DFD4CDE7022B12D00C226B681342A7D028
:10257000FFF7AEFA019BC01A134B9842F4D9E7E774
:10258000FFF7A6FA019BC01A0F4B9842E0D80C2225
:102590006B681340082BF3D192E722689A432260BC
:1025A00022681A42ACD190E76368084A1340F26887
:1025B000134363608DE7C0460020024000100240D4
:1025C000853C00080C00002088130000FFF8FFFF86
:1025D000014B18687047C0460C000020044B054AA8
:1025E0005B685B055B0FD35C034A1068D84070479B
:1025F00000100240953C00080C000020F0B5036874
:1026000085B00500DB0328D580220021374C520518
:10261000E3690091134208D1E3691343E361E3697D
:1026200013400393039B012300938027304E7F00C8
:1026300033683B4226D0C022236A920013402D4EBD
:1026400032D1236A1E406B681E43009B2662012B19
:1026500003D1E369284A1340E3612A68D30706D50A
:10266000032022490B6B8343A86803430B630020BC
:10267000930617D510211D4A136B8B43E9680B4352
:1026800013630FE033683B433360FFF721FA019097
:1026900033683B42CFD1FFF71BFA019BC01A642875
:1026A000F6D9032005B0F0BD69680A409342C8D04E
:1026B0008023226A206A11005B0203432362236A9B
:1026C0000E483140034023622162D307B9D5FFF79A
:1026D000FFF907000222236A1342B2D1FFF7F8F98B
:1026E000074BC01B9842F5D9DBE7C04600100240FB
:1026F00000700040FFFCFFFFFFFFFFEFFFFFFEFF4A
:10270000881300000122036A70B593430362036AD1
:1027100044688569723295430A68154302229343DF
:102720008A681343144A904208D0144EB04205D030
:10273000134EB04202D0134EB04216D10826B34316
:10274000CE6833430426B343904208D00B4A9042EC
:1027500005D00B4A904202D00A4A904205D10A4A5B
:102760008E6922404C69344314434A684460856151
:102770004263036270BDC046002C0140004001402E
:102780000044014000480140FFFCFFFF70B5732585
:10279000036A174A13400362036A4268C469AC4380
:1027A0000D682C43134D2B408D682D022B43124D89
:1027B000A8420ED1114D1D40CB681B022B43104D7A
:1027C0002B40104D4E6915408A69324312012A434D
:1027D00008E00D4DA842F4D00C4DA842F1D00C4DAC
:1027E000A842EED042604A68C461C263036270BD11
:1027F000FFFEFFFFFFFDFFFF002C0140FFF7FFFF83
:10280000FFFBFFFFFFCFFFFF0040014000440140FE
:1028100000480140036A144A30B513400362026A5B
:10282000124C4368C56925400C6824022543104CAE
:1028300022408C68240322430E4CA04208D00E4C48
:10284000A04205D00D4CA04202D00D4CA04204D1B4
:102850000C4C23404C69A401234343604B68C56181
:102860000364026230BDC046FFEFFFFFFF8CFFFF35
:10287000FFDFFFFF002C0140004001400044014009
:1028800000480140FFBFFFFF020002230121006852
:102890003D32137003680B430360002011707047D2
:1028A00001220368D96800201143D96019680A43DE
:1028B0001A6070477047704770477047022203687C
:1028C00010B51969040011420ED0D96811420BD01D
:1028D000053A1A619B69043202779B0700D179E0BF
:1028E000FFF7E9FF002323770422236819691142C7
:1028F00010D0D96811420DD0093A1A6107322277F7
:102900009A69C0239B0020001A4269D0FFF7D3FFC9
:102910000023237708222368196911420ED0D96851
:1029200011420BD0113A1A61DB690D322277200077
:102930009B075BD0FFF7BFFF00232377102223689C
:102940001969114210D0D96811420DD0213A1A618B
:1029500019322277DA69C0239B0020001A424BD03B
:10296000FFF7A9FF00232377012223681969114289
:1029700007D0D968114204D0033A1A612000FEF74B
:102980005DFF802223681969114208D0D96811427D
:1029900005D0023AFF3A1A61200000F02AFA4022DC
:1029A00023681969114207D0D968114204D0813ACD
:1029B0001A612000FFF781FF202223681969114264
:1029C00007D0D968114204D0413A1A61200000F0C2
:1029D0000FFA10BDFFF76EFF2000FFF76DFF81E7D4
:1029E000FFF768FF2000FFF767FF91E7FFF762FF3F
:1029F0002000FFF761FF9FE7FFF75CFF2000FFF774
:102A00005BFFAFE71C4A10B50368904202D01B4C35
:102A1000A04208D17024A3434C68234390420ED0B7
:102A2000164CA0420BD0164CA04208D0154CA04228
:102A300005D0154CA04202D0144CA04203D1144C36
:102A40002340CC6823438024A3434C692343036081
:102A50008B68C3620B688362904208D0094B98422E
:102A600005D0094B984202D0084B984201D10B691E
:102A700003630123436110BD002C014000040040AA
:102A80000020004000400140004401400048014057
:102A9000FFFCFFFF70B504000120002C14D02500BE
:102AA0003D352B78DBB2002B05D122003C32137070
:102AB000200000F0A5FE022320682B70211DFFF7E7
:102AC000A1FF012300202B7070BD70B50400012010
:102AD000002C14D025003D352B78DBB2002B05D11E
:102AE00022003C321370200000F05EFE02232068BA
:102AF0002B70211DFFF786FF012300202B7070BD76
:102B00001022036A70B593430362026A164D43684C
:102B100084692C400D682D022C432025AA438D6822
:102B20002D012A43114DA8420FD18025AA4315003B
:102B3000CA6812012A434025AA430D4D4E691D4023
:102B40008B6933439B002B4308E00A4DA842F4D025
:102B5000094DA842F1D0094DA842EED043604B6820
:102B600084618363026270BDFF8CFFFF002C014013
:102B7000FFF3FFFF004001400044014000480140D6
:102B8000F8B5060002233C360D0031780400180029
:102B9000012925D0270001213D3731703B700C2AD7
:102BA0001AD81000FDF7BAFA071818181D181818C7
:102BB0002F181818410029002068FFF7A3FD0822EC
:102BC000236899690A4304219A619A698A439A6140
:102BD0009A6929690A439A61012300203B70307089
:102BE000F8BD29002068FFF78BFF802223681201BF
:102BF00099690A439A619A6915490A409A612A6952
:102C000099691202E6E729002068FFF7BFFD082254
:102C10002368D9690A430421DA61DA698A43DA61EF
:102C2000DA6929690A43DA61D6E729002068FFF7E3
:102C3000F1FD802223681201D9690A43DA61DA6959
:102C400003490A40DA612A69D9691202EAE7C046F3
:102C5000FFFBFFFF10B501248C408A40036AA343A9
:102C60000362036A1A43026210BD000010B504003B
:102C700001220068FFF7EEFF23680B4A934208D059
:102C80000A4A934205D00A4A934202D0094A934223
:102C900004D18022596C12020A435A640122196835
:102CA00000200A431A6010BD002C01400040014082
:102CB000004401400048014010B5040000220068B3
:102CC000FFF7C8FF2368144A1449934208D0144AF6
:102CD000934205D0134A934202D0134A93420AD139
:102CE0001A6A0A4207D1186A104A104203D15A6C74
:102CF0000F4802405A641A6A0A4207D1196A0B4AFD
:102D0000114203D101211A688A431A6001233D341C
:102D10000020237010BDC046002C0140111100009E
:102D200000400140004401400048014044040000CC
:102D3000FF7FFFFF30B504003C34227803000220FF
:102D4000012A17D01D001B683D3528705A686E3067
:102D500082435A605A6808684968024380205A6072
:102D60009A6882439A609A6800200A439A60012315
:102D70002B70207030BD000030B504003C34237847
:102D800002000220012B24D015003D352870114B84
:102D9000C86812680340886803430F4803404868C6
:102DA00003430E480340086803430D480340086985
:102DB00003430C4803404869896903430A480340B8
:102DC0000A480B4303400B435364002001232B703C
:102DD000207030BDFFFCFFFFFFFBFFFFFFF7FFFF91
:102DE000FFEFFFFFFFDFFFFFFFBFFFFFFF7FFFFFE3
:102DF00070477047036806491A686A300A401A60CB
:102E00009A682331FF318A439A6020230370704708
:102E1000DFFEFFFF70B5060069363378040002203C
:102E2000202B24D10138002921D0002A1FD0802353
:102E3000A5685B019D4204D12369002B01D10142A9
:102E400015D1250068352B780220012B0FD02300E7
:102E50005033E1645A801A80002321222168E366FE
:102E6000327008685F32024318002B700A6070BD30
:102E7000F0B506006A36347803000220202C35D1E4
:102E80000138002932D0002A30D080249D686401A6
:102E9000A54204D11C69002C01D1014226D11C009D
:102EA000683427780220012F20D00138207059651E
:102EB000190058310A804A8080225201954218D167
:102EC0001A69002A13D10E491A005C3211800020C1
:102ED0002222D8661B6832709968213A0A43207012
:102EE0009A609022196852000A431A60F0BDFF21CF
:102EF000EAE7002DEBD11A69002AF8D07F21E3E739
:102F0000FF01000070477047406A0023020010B5BF
:102F10005A321380083A1380FFF7F5FF10BD000006
:102F200070B504000568C2698368006929680343B5
:102F300060693F4E03433F48134301400B432B60FE
:102F40006B683D49206A0B40E1680B436B60A369E5
:102F5000A9680343394801400B43AB6080231B023F
:102F6000B54210D103203649096B01403548405C19
:102F70009A4213D0082858D8FDF7D0F8375742574F
:102F80004B575757500030498D424CD19A422CD163
:102F9000FFF724FB636840005B080BE0082821D89A
:102FA000FDF7B2F8F6200520182020201B006368EA
:102FB0005808264BC0186168FDF7BAF883B20020A4
:102FC0000F22190091430A001B0721685B0F13436E
:102FD000CB6070BDFFF734FADCE7636858088023E4
:102FE0005B02E7E701200023EAE7FFF7F7FA6168F1
:102FF0004B081818FDF79CF880B2E8600020E8E75D
:103000006168134B4808C018FDF792F880B2F06071
:10301000F4E7FFF715FA61684B08F4E7802361686D
:103020001B024808EFE79A42DCD00120D1E7C046F6
:1030300000380140F369FFFFFFCFFFFFFFF4FFFF00
:1030400000100240743C0008004400400024F400DA
:1030500000127A00436A30B5DA0706D50168284CB9
:103060004A682240846A22434A609A0706D501686A
:10307000244C4A682240C46A22434A605A0706D553
:103080000168214C4A682240046B22434A601A07B7
:1030900006D501681D4C4A682240446B22434A60B1
:1030A000DA0606D501681A4C8A682240846B2243EE
:1030B0008A609A0606D50168164C8A682240C46B5D
:1030C00022438A605A0610D50168134D4A68046C81
:1030D0002A4022434A6080225203944205D14A6822
:1030E0000E4C2240446C22434A601B0606D50268FF
:1030F0000B4953680B40816C0B43536030BDC04695
:10310000FFFFFDFFFFFFFEFFFFFFFBFFFF7FFFFF56
:10311000FFEFFFFFFFDFFFFFFFFFEFFFFFFF9FFF5F
:10312000FFFFF7FF70B5041E01D1012070BD05003F
:1031300069352B78DBB2002B04D1020068321370A2
:1031400000F096FC2423012122682B7013682000D4
:103150008B431360FFF7E4FE0128E6D0636A002B7F
:1031600002D02000FFF776FF23680B495A68002041
:103170000A4008215A609A688A439A6001221968B5
:103180000A431A6022002023E0666A3268342B70FA
:1031900013702070CAE7C046FFF7FFFF030030B589
:1031A00069331B7802000220212B0FD11400523406
:1031B000238811689BB2002B09D10A687E308243B4
:1031C0000A604022086802430A60002030BD802067
:1031D00095684001D36C85420DD1106900280AD151
:1031E00018880233C005C00D0885D3642388013BCD
:1031F0009BB22380E9E7581CD0641B780B85F5E768
:103200004021026810B513688B431360030020222D
:1032100069331A70FFF776FE002010BD020070B50A
:103220006A321178036822292DD1010080245C3193
:103230000D88998C640129408568436DA5421ED193
:103240000469002C1BD1198002334365010000245E
:103250005A310B88013B9BB20B80A3420DD103680E
:103260000C4D19682940196099682335FF35A94329
:10327000996020231370FEF793FA200070BD5C1C48
:1032800044651970E2E70822996902240A439A61A9
:10329000F3E7C046DFFEFFFF0F2270B504000068B1
:1032A000C36901681A4008D120252B4205D0294264
:1032B00003D02000FFF7B2FF70BD8568002A60D000
:1032C0000122154003D190267600314259D0134295
:1032D00005D0CE0503D50262E66E3243E2660222D5
:1032E000134206D0002D04D00262E66E92183243DB
:1032F000E2660422134206D0002D04D00262E66E7C
:10330000023A3243E2661A0708D58A0601D4002D34
:1033100004D008220262E06E0243E266E26E002AF6
:10332000CAD02022134204D0114202D02000FFF75D
:1033300075FFE36E20001B0704D423689D684023BB
:103340001D401AD0FFF756FD402123689A680A42B3
:103350000FD09A68606E8A439A60002809D0134B98
:103360004363FEF7B2FD0028A6D0606E436B98471A
:10337000A2E72000FFF7C7FD9EE7FFF7C4FDE56663
:103380009AE78022134205D0114203D02000FFF7B4
:1033900005FF91E74022134200D18DE7114200D191
:1033A0008AE72000FFF72CFF86E7C046092F0008B8
:1033B0001FB5314C314B04212360802361611B0612
:1033C000C221012263600023FF312000A360E3607B
:1033D0002261A361E36123626362A162E36223630A
:1033E0006263FEF77BFB002803D04A21244800F0EB
:1033F0003CF90023019380235B010293802301A900
:103400005B0520000393FEF783FC002803D05421C2
:103410001B4800F02AF9012301A920000193FEF7BF
:1034200077FC002803D05C21154800F01EF9022328
:1034300001A920000193FEF76BFC002803D0642152
:103440000F4800F012F9032301A920000193FEF7B1
:103450005FFC002803D06C21094800F006F9042322
:1034600001A920000193FEF753FC002803D074212A
:10347000034800F0FAF81FBD80000020002401403E
:10348000783C000810B5124B026886B09A421CD1F5
:103490008020104A80009169002401439161936962
:1034A00001A903400093009B90201F23C0050193B6
:1034B0001C3B02930394FEF72BFD0C2022002100FD
:1034C000FEF79CFC0C20FEF7C9FC06B010BDC04600
:1034D00000240140001002408020364B000359694F
:1034E000F0B5014359615A698BB0024080200192C6
:1034F000019A5969C003014359615A6990270240F2
:1035000080200292029A5969800201435961802108
:103510005A69C90202400392039A5A69FF050A4395
:103520005A615B69244E0B40049338000022C0218D
:10353000049BFEF79DFD002230000421FEF798FD5C
:10354000E023002403251B0205A91C4805930695CA
:103550000794FEF7DDFC1A4B05A938000593069584
:103560000794FEF7D5FCC02305A905933800BF3B9F
:10357000069307940894FEF7CBFC042305A9059352
:103580003000033B069307940894FEF7C1FC0D4BF3
:1035900005A93000059306950794FEF7B9FCC023F2
:1035A00005A90948059306950794FEF7B1FC0BB0F1
:1035B000F0BDC0460010024000040048000800486A
:1035C0002090000038FF000000140048802330B530
:1035D0005B0295B01193A023012402259B0308A848
:1035E00008940994109512931394FEF747FD002850
:1035F00000D0FEE707230290039021006846009365
:103600000195FEF74FFF002800D0FEE7069004A8C2
:103610000494FEF7F3FF041E00D0FEE7FEF7D8FF88
:10362000FA218900FCF784FDFEF722FC0420FEF756
:1036300039FC0120220021004042FEF7DFFB15B0DB
:1036400030BD10B5FEF72CFAFFF7C0FFFFF744FFBF
:1036500000F01CF9FFF7ACFE00F0EAF900F098F971
:1036600000F086F8FEF782F8FEE7FEE707B50120D6
:10367000114B99690143996180219A69490502407A
:103680000092009ADA6906380A43DA610022DB699F
:103690000B4001931100019BFEF7B0FB00220220BA
:1036A00011004042FEF7AAFB002201201100404217
:1036B000FEF7A4FB07BDC046001002407047FEE7BE
:1036C0007047704710B5FEF7FBF9FEF7FAFB10BD27
:1036D00010B50248FEF7ACFA10BDC04680000020CD
:1036E00010B50248FFF7EAF810BDC0464C010020B3
:1036F00010B50248FFF7E2F810BDC0460C010020EB
:1037000010B50248FFF7C8FD10BDC0468C0100206F
:103710000121114B11481A680A431A605A68024085
:103720005A601A680E4802401A601A680D48024032
:103730001A605A680C4802400F205A60DA6A8243C5
:10374000DA621A6B094802401A635A6B8A435A6359
:1037500000229A607047C046001002400CB8FF0873
:10376000FFFFF6FEFFFFFBFFFFFFC0FFECFEFFFFCA
:1037700009480A4B10B503602F2343600023084A11
:103780008360C2608361FFF785F9002803D0AF2111
:103790000448FFF76AFF10BD0C0100200010004034
:1037A0001F4E00009D3C000807B50368114A934274
:1037B00012D18020104A00019169014391619369FF
:1037C0000022034000930D201100009BFEF716FB22
:1037D0000D20FEF743FB07BD084A9342FBD10220B0
:1037E000054AD1690143D161D36903400193019B2B
:1037F000F1E7C046002C01400010024000040040E8
:1038000007B50B4B02689A4210D11020094AD169C2
:103810000143D161D36900220340019301301100BB
:10382000019BFEF7EBFA1120FEF718FB07BDC0461F
:1038300000100040001002407FB50368104A934218
:103840000FD1F0231B010022019390200223039249
:1038500002930492059301A9C005FEF759FB07B036
:1038600000BD084A9342FAD103230193013B02931E
:103870000023039304930133059301A90248ECE765
:10388000002C0140000400400004004810B53D4BEE
:103890003D4C202223600023A260D53290B0FF323D
:1038A00020006360E26023616361A361FFF70DF9AB
:1038B000002803D043213548FFF7D7FE002369468F
:1038C000200000930193FFF735FA002803D04A2126
:1038D0002E48FFF7CAFE602300220293F933FF331C
:1038E00002A920000393049205920692079208927F
:1038F000FFF746F9002803D056212448FFF7B5FE0C
:103900000223042202A920000493FFF739F90028BA
:1039100003D05C211D48FFF7A8FE0023082202A95E
:10392000200003930493FFF72BF9002803D06321B1
:103930001648FFF79AFE02230C2202A920000493E6
:10394000FFF71EF9002803D069211048FFF78DFE0C
:1039500080220023920109A9200009930A930B9366
:103960000C930D930E920F93FFF706FA002803D0E5
:1039700075210648FFF779FE2000FFF75DFF10B0C4
:1039800010BDC046002C01404C0100209D3C0008A9
:10399000962210B5224B234C12012360224BE26089
:1039A0008022636000238AB092002000A36022611D
:1039B000A361FFF78AF8002803D089211B48FFF78D
:1039C00054FE002301A9200001930293FFF7B2F9EE
:1039D000002803D090211548FFF747FE602303938A
:1039E0000023082203A92000049305930793FFF7FF
:1039F000C7F8002803D099210C48FFF736FE0C22A7
:103A000003A92000FFF7BCF8002803D09E21074837
:103A1000FFF72BFE2000FFF70FFF0AB010BDC046D6
:103A200000040040CC000020102700009D3C00084E
:103A30000C480D4B10B50360E1235B0243600C2280
:103A4000002342618360C36003618361C3610362D9
:103A50004362FFF767FB002803D044210348FFF7C8
:103A600004FE10BD8C01002000380140AA3C000873
:103A700010B5134B026886B09A421ED18020114ABD
:103A8000C0019169002401439161936901A9034038
:103A90000093009BC0230193BE3B02930A4801336D
:103AA000049303940594FEF733FA1B2022002100AF
:103AB000FEF7A4F91B20FEF7D1F906B010BDC046F1
:103AC0000038014000100240000400480D488546BF
:103AD0000D480E490E4A002302E0D458C450043366
:103AE000C4188C42F9D30B4A0B4C002301E013603D
:103AF0000432A242FBD3FFF70BFE00F011F8FFF7F0
:103B0000A0FDFEE7002000200000002010000020A3
:103B1000C43C000810000020FC010020FEE700006B
:103B200070B500260C4D0D4C641BA410A64209D1A3
:103B3000002600F023F80A4D0A4C641BA410A6428C
:103B400005D170BDB300EB5898470136EEE7B300DE
:103B5000EB5898470136F2E7BC3C0008BC3C000833
:103B6000BC3C0008C03C0008002310B59A4200D1BC
:103B700010BDCC5CC4540133F8E70000F8B5C04672
:103B8000F8BC08BC9E467047F8B5C046F8BC08BCF7
:043B90009E46704796
:103B940002030405060708090A0B0C0D0E0F10108A
:103BA4000102030405060708090A0B0C0D0E0F1089
:103BB4006C0700083C0700084E0700089006000840
:103BC4004E070008320700084E0700089006000858
:103BD4003C0700083C07000832070008900600086C
:103BE400980600089806000898060008540700087C
:103BF4003C0700083C07000810070008F407000809
:103C0400100700083207000810070008F40700082E
:103C14003C0700083C07000832070008F4070008C6
:103C2400980600089806000898060008FE07000891
:103C3400EC0A00083C0A00083C0A00083A0A00089A
:103C4400DE0A0008DE0A0008D40A00083A0A00085E
:103C5400DE0A0008D40A0008DE0A00083A0A00084E
:103C6400E40A0008E40A0008E40A0008740B0008E7
:103C7400000408022E2E5C5372635C6164632E633D
:103C84000000000000000000000102030406070811
:103C94000900000000010203042E2E5C5372635CD1
:103CA40074696D2E63002E2E5C5372635C757361B0
:083CB40072742E630000000091
:043CBC00E900000813
:043CC000C100000837
:103CC400476F74206974210D0A00000000127A0005
:0400000508003ACDE8
:00000001FF
