:020000040800F2
:10000000002000205D220008CD1E0008CF1E000841
:1000100000000000000000000000000000000000E0
:10002000000000000000000000000000D11E0008D9
:100030000000000000000000D31E0008D51E0008CC
:10004000AD22000800000000AD220008AD2200082B
:10005000AD220008AD220008AD220008AD22000844
:1000600000000000AD220008AD220008AD2200080B
:10007000E11E0008F11E0008AD220008000000008B
:10008000AD220008AD22000800000000AD220008EB
:10009000AD220008AD220008AD220008AD22000804
:1000A000AD220008AD220008AD220008011F0008A3
:1000B000AD22000800000000000000000000000069
:1000C00010B5064C2378002B07D1054B002B02D02E
:1000D000044800E000BF0123237010BD0C00002085
:1000E000000000000C230008044B10B5002B03D0C7
:1000F0000349044800E000BF10BDC04600000000F6
:10010000100000200C23000802B471464908490081
:10011000095649008E4402BC7047C04602B471467D
:1001200049084900095C49008E4402BC7047C0463A
:10013000002243088B4274D303098B425FD3030A26
:100140008B4244D3030B8B4228D3030C8B420DD339
:10015000FF22090212BA030C8B4202D312120902C7
:1001600065D0030B8B4219D300E0090AC30B8B4205
:1001700001D3CB03C01A5241830B8B4201D38B03B3
:10018000C01A5241430B8B4201D34B03C01A524158
:10019000030B8B4201D30B03C01A5241C30A8B429B
:1001A00001D3CB02C01A5241830A8B4201D38B0286
:1001B000C01A5241430A8B4201D34B02C01A52412A
:1001C000030A8B4201D30B02C01A5241CDD2C3099C
:1001D0008B4201D3CB01C01A524183098B4201D318
:1001E0008B01C01A524143098B4201D34B01C01A03
:1001F000524103098B4201D30B01C01A5241C3087B
:100200008B4201D3CB00C01A524183088B4201D3E9
:100210008B00C01A524143088B4201D34B00C01AD5
:100220005241411A00D20146524110467047FFE741
:1002300001B5002000F006F802BDC0460029F7D045
:1002400076E770477047C04610B500F047F800F0F9
:100250004BF800F001F810BD002210B5034B044923
:100260001A600448013201F007FA10BD3C0000207A
:10027000280000201001002070B50C4EB04213D1B0
:100280000B4D0C4C2B68E25C01330A2A05D1053A70
:100290000949300001F0C2F900232B6029680122CE
:1002A0006118300001F0E8F970BDC046100100206F
:1002B0003C0000202800002000000020902010B505
:1002C00001228021C00500F037FB10BD902010B541
:1002D00001224021C00500F02FFB10BD10B5FFF733
:1002E000EDFFFFF7F3FF10BD10B50D4C200000F03F
:1002F0002FFFFA22236800215A6320009A63DA63F1
:100300001A6401F0F5F80421200001F0F1F8082149
:10031000200001F0EDF80C21200001F0E9F810BDFB
:10032000D000002010B5040000F0B6FDFA218900CD
:10033000FFF7FEFE00F000FA0120002221004042FB
:1003400000F0C0F9002010BD1023064A10B5116856
:1003500000200B431360FFF7E5FF01F08FFD002045
:1003600010BDC04600200240024A136801331360EA
:100370007047C04640000020014B18687047C046D7
:100380004000002037B50190FFF7F6FF019C050003
:10039000631C5A1E9341E418FFF7EEFF401BA04276
:1003A000FAD337BDF8B504000120002C72D0636C7D
:1003B000002B06D122004032A3642000137001F00C
:1003C00065FC636CDB0600D579E00422236898683D
:1003D000104000D073E0626C4249114002220A438F
:1003E000032162649A680A40012A00D06DE019680E
:1003F000114202D1DA68120467D5DA683A49256AEF
:100400000A40DA60A2696F039103E269D2031143E3
:10041000626B013A561EB2411603E268114322692B
:100420000F43022A00D10420226B616A52003A4332
:1004300032430243012904D1002D2CD180214902ED
:100440000A43C220A16AFF30814202D0E06A014320
:100450000A438020D96840051143D960A16B8142CD
:1004600002D0481E062807D8072558692940A84306
:100470005861586901435961DB681C490B409A4235
:1004800011D100200322A064636C93431A0001235E
:1004900013436364F8BD2020656C28436064A06C3E
:1004A0000143A164CDE71222636C012093431A003B
:1004B000102313436364A36C0343A364EAE710238C
:1004C000626C012013436364E4E71821DA688A430D
:1004D000A1680A43DA6019696268890089081143D2
:1004E00019618AE7FDFEFFFF1902FEFFE7FF3F8368
:1004F00070477047704700000422036870B51968A0
:100500000400114202D05968114206D1082219682C
:10051000114228D05968114225D0626CD20604D409
:100520008022616C92000A436264C022D968120181
:10053000114212D1226A002A0FD11A6812070CD573
:100540009A6852073CD40C215A688A435A60636CFB
:10055000204A1A400123134363642000FFF7C8FFB9
:100560000C2223681A60802523681A682A420CD05E
:100570005B682B4209D08023626C5B021343636487
:100580002000FFF7B6FF23681D601022236819685A
:10059000114214D05968114211D0626B012A02D065
:1005A000DA68D20708D50222A16C20000A43A264AF
:1005B00010221A60FFF79EFF102223681A6070BD98
:1005C0002023626C134363640123A26C1343A3646E
:1005D000C3E7C046FEFEFFFFF7B50023040001930A
:1005E0004034237805000220012B2BD001232A68F8
:1005F000AE6B90682370400752D42C484F680D684A
:1006000087423BD0AB4018008023976A5B05384394
:1006100090629E420FD0013E062E0CD98B680721B6
:1006200050690840834206D050690B4088435061AE
:100630005069034353612B00103B012B03D9002069
:1006400000232370FEBD1A4B80221968102D13D091
:10065000D2030A431A60102DF1D1164B16491868BF
:10066000FFF766FD0A2358430190019B002BE6D05B
:10067000019B013B0193F8E71204EAE7AB40916A62
:1006800099432B00103B9162012BD8D8084B1A6874
:10069000102D03D009490A401A60D0E70849FAE74B
:1006A0002022696C18000A436A64C9E7011000003F
:1006B000082701400800002040420F00FFFFBFFF55
:1006C000FFFF7FFF70B58901002814DA0F23C0B245
:1006D0000340083B114A9B089B009B1803221040D3
:1006E0009040FC321500114085408140DC69AC43EC
:1006F0002143D96170BD032583082840A840FC35FB
:100700002E00074A9B009B18C0228640294081404A
:1007100092009C58B44321439950EBE700ED00E070
:1007200000E100E01F2318401E3B8340014A136094
:100730007047C04600E100E0094A431E0120934291
:100740000DD8C021074A08485360036A09061B02F6
:100750001B0A0B430362002007239060136070475D
:10076000FFFFFF0010E000E000ED00E0054B1A681D
:10077000042802D110431860704704218A431A608C
:10078000FAE7C04610E000E0704710B5FFF7FCFF45
:1007900010BD70B5841CE37F022B04D00423836357
:1007A000033B180070BD0E210368056C1A688A436C
:1007B0001A6001221968914319601100A940C36BA6
:1007C0005960E27700248318426BDC771300A24261
:1007D000E7D090472300E4E7F0B50B6887B00293B9
:1007E00000230191029ADA4001D107B0F0BD012245
:1007F0009A4003920399029A0A40009200D18CE039
:10080000019A1021526816008E43022E0ED1072540
:100810001D40AD000139A940DC08A4000419276A75
:100820008F4301990969A9400F43276203245F00A0
:10083000BC40E4430568013E2540AC460325154015
:10084000BD4061460D430560012E0FD801998668B1
:10085000CD682640BD40354385604668039915093B
:100860008E4301210D409D4035434560C568019987
:100870002C408D688021BD4049052C43C4600A424C
:100880004BD00121264C0326A5691E400D43A561CE
:10089000A4699D080C400594059C0F242149AD00D6
:1008A000B6006D18B4409021AF68C905A743002475
:1008B00088420CD01C490134884208D01B490134BD
:1008C000884204D01A490334884200D1023CB44023
:1008D00000993C430E00AC60164CCD4327683E4364
:1008E000D10301D43E002E4026606768009E3E433F
:1008F000910301D43E002E406660A768009E3E43EF
:10090000D10201D43E002E40A660E668009F374326
:10091000920201D42E403700E760013362E7C046FF
:100920000010024000000140000400480008004898
:10093000000C004800040140002A01D0816170478A
:100940008162FCE7F0B5036885B00500DB072FD4B2
:100950002B689B0700D581E02B681B0700D5BCE006
:100960002B685B0700D5DFE02B68DB061AD56A69C8
:10097000B54C0423012A00D04BE1616B02260B43E6
:100980006363636B1A436263FFF7F6FC0700636BF4
:10099000334200D136E1F821626BAB698A43DB0058
:1009A00013436363296A002900D059E1002013E052
:1009B0000C21A54C62680A40042A06D063680B40EB
:1009C000082B0BD16368DB0308D523689B03BFD5D5
:1009D0006B68002BBCD1012005B0F0BD6B68012B0A
:1009E00013D1802322685B0213432360FFF7C4FC0A
:1009F00080260700B60223683342A9D1FFF7BCFC6A
:100A0000C01B6428F7D90320E6E7002B16D1236822
:100A10008E4A80261340236023688D4AB602134015
:100A20002360FFF7A9FC07002368334200D18FE75A
:100A3000FFF7A2FCC01B6428F6D9E4E7052B05D11B
:100A400080232268DB0213432360CAE723687F4ABE
:100A50001340236023687E4A1340C6E70C227A4C79
:100A60006368134206D063681340082B10D1636893
:100A7000DB030DD423689B0702D5EB68012BAAD1B9
:100A8000F82122682B698A43DB001343236063E764
:100A9000EA680123002A0FD022680226134323604C
:100AA000FFF76AFC070023683342E9D1FFF764FCD3
:100AB000C01B0228F7D9A6E7226802269A432260C3
:100AC000FFF75AFC07002368334200D144E7FFF7E1
:100AD00053FCC01B0228F6D995E7EA6901235A4C5A
:100AE000002A10D0626A022613436362FFF744FCB7
:100AF0000700636A334200D032E7FFF73DFCC01BBA
:100B00000228F6D97FE7626A02269A436262FFF7FB
:100B100033FC0700636A334200D121E7FFF72CFC66
:100B2000C01B0228F6D96EE780220021464C5205F0
:100B3000E3690091134208D1E3691343E361E36978
:100B400013400393039B012300938027414E7F00B2
:100B500033683B4206D0AB68012B13D1226A1343A2
:100B6000236230E033683B433360FFF705FC0190BC
:100B700033683B42EFD1FFF7FFFB019BC01A6428AB
:100B8000F6D940E70122002B14D1236A02279343B0
:100B90002362236A033293432362FFF7EDFB0600CF
:100BA000236A3B4225D0FFF7E7FB2B4B801B984283
:100BB000F6D928E7052B0BD1216A013B0B432362B1
:100BC000236A1A432262FFF7D7FB022706000DE0D3
:100BD000236A934304222362236A9343C0E7FFF707
:100BE000CBFB1D4B801B984200D90CE7236A3B428C
:100BF000F5D0009B012B00D0B6E6E369174A1340FD
:100C0000E361B1E6FFF7B8FBC01B022800D8BEE6DF
:100C1000F9E6053203D1626B9A436263BBE6626B0D
:100C20000226134301226363636B93436363FFF7FD
:100C3000A3FB0700636B334200D1B3E6FFF79CFBD5
:100C4000C01B0228F6D9DEE600100240FFFFFEFFBF
:100C5000FFFFFBFF0070004088130000FFFFFFEF65
:100C60000C22264C012063681340082B00D1B3E608
:100C70002368234A1340236002292FD1FFF77CFB0E
:100C800080260700B6042368334221D10F22E36A8D
:100C90009343EA6A1343E362696AAB6A62680B438F
:100CA000184980250A4013436360802322685B044F
:100CB00013432360FFF760FB0600AD0423682B425B
:100CC00000D073E6FFF758FB801B0228F6D99AE69E
:100CD000FFF752FBC01B0228D5D994E6FFF74CFB67
:100CE00080250600AD0423682B4200D15EE6FFF7A5
:100CF00043FB801B0228F6D985E6C046001002405F
:100D0000FFFFFFFEFFFFC2FF70B5144C88B010223A
:100D10002100684601F0F0FA210004AD10221031E4
:100D2000280001F0E9FA0C220D4E73681A40082AD7
:100D300011D10F206A46990C0140545CF26A0240BE
:100D4000A95CDB0305D50748FFF7F2F9604308B05B
:100D500070BD0548FAE70348F9E7C04624230008B8
:100D60000010024000127A0000093D00F7B5012290
:100D7000434C060023680F0013408B421CD332689B
:100D8000930723D4D30729D4012322681A4097421A
:100D900067D333683B4C5B076AD4FFF7B5FF6368E2
:100DA000394A1B061B0FD35CD840384B1860002013
:100DB000FFF7B8FA002008E0236893430B43236051
:100DC000236813409942DAD00120FEBDF0202D495E
:100DD0004B688343B06803434B60D3E7294D726887
:100DE0002B68012A1AD19B03EED503216B688B4334
:100DF00013436B60FFF7C0FA73680190012B15D1A4
:100E00000C226B681340042BBED0FFF7B5FA019B90
:100E1000C01A1F4B9842F3D90320D6E7022A02D109
:100E20009B01E2D4D0E79B07DFD4CDE7022B12D0A1
:100E30000C226B681342A7D0FFF79EFA019BC01AE1
:100E4000134B9842F4D9E7E7FFF796FA019BC01AD3
:100E50000F4B9842E0D80C226B681340082BF3D15B
:100E600092E722689A43226022681A42ACD190E746
:100E70006368084A1340F268134363608DE7C04615
:100E80000020024000100240552300080800002006
:100E900088130000FFF8FFFF014B18687047C04639
:100EA00008000020044B054A5B685B055B0FD35CC0
:100EB000034A1068D84070470010024065230008BC
:100EC00008000020F0B5036885B00500DB0328D5D5
:100ED00080220021374C5205E3690091134208D16A
:100EE000E3691343E361E36913400393039B012325
:100EF00000938027304E7F0033683B4226D0C022CB
:100F0000236A920013402D4E32D1236A1E406B6833
:100F10001E43009B2662012B03D1E369284A13403C
:100F2000E3612A68D30706D5032022490B6B83436C
:100F3000A86803430B630020930617D510211D4AB0
:100F4000136B8B43E9680B4313630FE033683B4338
:100F50003360FFF711FA019033683B42CFD1FFF7BE
:100F60000BFA019BC01A6428F6D9032005B0F0BD26
:100F700069680A409342C8D08023226A206A11001F
:100F80005B0203432362236A0E483140034023621D
:100F90002162D307B9D5FFF7EFF907000222236AD0
:100FA0001342B2D1FFF7E8F9074BC01B9842F5D9BD
:100FB000DBE7C0460010024000700040FFFCFFFF6E
:100FC000FFFFFFEFFFFFFEFF881300000122036A0F
:100FD00070B593430362036A44688569723295432E
:100FE0000A681543022293438A681343144A9042C5
:100FF00008D0144EB04205D0134EB04202D0134E6A
:10100000B04216D10826B343CE6833430426B34317
:10101000904208D00B4A904205D00B4A904202D031
:101020000A4A904205D10A4A8E6922404C693443EB
:1010300014434A68446085614263036270BDC046E0
:10104000002C0140004001400044014000480140A4
:10105000FFFCFFFF70B57325036A174A1340036254
:10106000036A4268C469AC430D682C43134D2B409E
:101070008D682D022B43124DA8420ED1114D1D40FB
:10108000CB681B022B43104D2B40104D4E69154071
:101090008A69324312012A4308E00D4DA842F4D078
:1010A0000C4DA842F1D00C4DA842EED042604A68E7
:1010B000C461C263036270BDFFFEFFFFFFFDFFFF5F
:1010C000002C0140FFF7FFFFFFFBFFFFFFCFFFFFFB
:1010D000004001400044014000480140036A144AB6
:1010E00030B513400362026A124C4368C56925405B
:1010F0000C6824022543104C22408C6824032243B0
:101100000E4CA04208D00E4CA04205D00D4CA0427F
:1011100002D00D4CA04204D10C4C23404C69A401D8
:10112000234343604B68C5610364026230BDC0461F
:10113000FFEFFFFFFF8CFFFFFFDFFFFF002C0140F1
:10114000004001400044014000480140FFBFFFFF54
:1011500002000223012100683D32137003680B4333
:1011600003600020117070477047704770477047E8
:1011700070470222036810B51969040011420ED0AD
:10118000D96811420BD0053A1A619B690432027783
:101190009B0700D179E0FFF7E9FF002323770422C2
:1011A00023681969114210D0D96811420DD0093A4B
:1011B0001A61073222779A69C0239B0020001A42E5
:1011C00069D0FFF7D3FF002323770822236819692A
:1011D00011420ED0D96811420BD0113A1A61DB6965
:1011E0000D32227720009B075BD0FFF7BFFF002363
:1011F0002377102223681969114210D0D96811424F
:101200000DD0213A1A6119322277DA69C0239B0086
:1012100020001A424BD0FFF7A9FF002323770122B9
:1012200023681969114207D0D968114204D0033AE2
:101230001A612000FFF798FF802223681969114284
:1012400008D0D968114205D0023AFF3A1A6120004D
:1012500000F0D3F9402223681969114207D0D968F8
:10126000114204D0813A1A612000FFF781FF202249
:1012700023681969114207D0D968114204D0413A54
:101280001A61200000F0B8F910BDFFF76EFF2000D2
:10129000FFF76DFF81E7FFF768FF2000FFF767FFAB
:1012A00091E7FFF762FF2000FFF761FF9FE7FFF77D
:1012B0005CFF2000FFF75BFFAFE700001C4A10B5A2
:1012C0000368904202D01B4CA04208D17024A34373
:1012D0004C68234390420ED0164CA0420BD0164CC3
:1012E000A04208D0154CA04205D0154CA04202D017
:1012F000144CA04203D1144C2340CC6823438024D7
:10130000A3434C69234303608B68C3620B68836209
:10131000904208D0094B984205D0094B984202D020
:10132000084B984201D10B6903630123436110BD4F
:10133000002C01400004004000200040004001401B
:101340000044014000480140FFFCFFFF70B504006D
:101350000120002C14D025003D352B78DBB2002B6A
:1013600005D122003C321370200000F001FE022360
:1013700020682B70211DFFF7A1FF012300202B7097
:1013800070BD00001022036A70B593430362026AC5
:10139000164D436884692C400D682D022C4320258E
:1013A000AA438D682D012A43114DA8420FD18025F3
:1013B000AA431500CA6812012A434025AA430D4DCD
:1013C0004E691D408B6933439B002B4308E00A4D57
:1013D000A842F4D0094DA842F1D0094DA842EED060
:1013E00043604B6884618363026270BDFF8CFFFFC2
:1013F000002C0140FFF3FFFF00400140004401408A
:1014000000480140F8B5060002233C360D00317853
:1014100004001800012925D0270001213D37317033
:101420003B700C2A1AD81000FEF778FE071818181F
:101430001D1818182F181818410029002068FFF7E8
:10144000C5FD0822236899690A4304219A619A69B3
:101450008A439A619A6929690A439A6101230020A3
:101460003B703070F8BD29002068FFF78BFF8022A9
:101470002368120199690A439A619A6915490A40D9
:101480009A612A6999691202E6E729002068FFF744
:10149000E1FD08222368D9690A430421DA61DA6987
:1014A0008A43DA61DA6929690A43DA61D6E72900F1
:1014B0002068FFF713FE802223681201D9690A43CE
:1014C000DA61DA6903490A40DA612A69D9691202E4
:1014D000EAE7C046FFFBFFFF10B501248C408A40BD
:1014E000036AA3430362036A1A43026210BD000049
:1014F00010B5040001220068FFF7EEFF23680B4AD5
:10150000934208D00A4A934205D00A4A934202D035
:10151000094A934204D18022596C12020A435A6448
:101520000122196800200A431A6010BD002C0140F6
:1015300000400140004401400048014030B5040033
:101540003C34227803000220012A17D01D001B68BA
:101550003D3528705A686E3082435A605A68086870
:101560004968024380205A609A6882439A609A6868
:1015700000200A439A6001232B70207030BD0000C8
:1015800030B504003C34237802000220012B24D023
:1015900015003D352870114BC868126803408868F3
:1015A00003430F480340486803430E48034008685C
:1015B00003430D480340086903430C48034048694E
:1015C000896903430A4803400A480B4303400B431D
:1015D0005364002001232B70207030BDFFFCFFFFFF
:1015E000FFFBFFFFFFF7FFFFFFEFFFFFFFDFFFFF47
:1015F000FFBFFFFFFF7FFFFF70477047036806498B
:101600001A686A300A401A609A682331FF318A43A7
:101610009A60202303707047DFFEFFFF70B506005D
:101620006936337804000220202B24D101380029A8
:1016300021D0002A1FD08023A5685B019D4204D1E0
:101640002369002B01D1014215D1250068352B7883
:101650000220012B0FD023005033E1645A801A80FE
:10166000002321222168E366327008685F3202435A
:1016700018002B700A6070BDF0B506006A36347829
:1016800003000220202C35D10138002932D0002A55
:1016900030D080249D686401A54204D11C69002CCF
:1016A00001D1014226D11C00683427780220012F85
:1016B00020D0013820705965190058310A804A80BD
:1016C00080225201954218D11A69002A13D10E497D
:1016D0001A005C32118000202222D8661B6832700A
:1016E0009968213A0A4320709A6090221968520042
:1016F0000A431A60F0BDFF21EAE7002DEBD11A6919
:10170000002AF8D07F21E3E7FF010000704770470F
:10171000406A0023020010B55A321380083A138041
:10172000FFF7F5FF10BD000070B504000568C26941
:10173000836800692968034360693F4E03433F485B
:10174000134301400B432B606B683D49206A0B40FB
:10175000E1680B436B60A369A96803433948014002
:101760000B43AB6080231B02B54210D103203649E6
:10177000096B01403548405C9A4213D0082858D87C
:10178000FEF7CCFC375742574B575757500030495C
:101790008D424CD19A422CD1FFF784FB6368400004
:1017A0005B080BE0082821D8FEF7AEFCF6200520E8
:1017B000182020201B0063685808264BC018616859
:1017C000FEF7B6FC83B200200F22190091430A00F5
:1017D0001B0721685B0F1343CB6070BDFFF794FAC2
:1017E000DCE76368580880235B02E7E701200023F9
:1017F000EAE7FFF757FB61684B081818FEF798FCFB
:1018000080B2E8600020E8E76168134B4808C01820
:10181000FEF78EFC80B2F060F4E7FFF775FA6168BE
:101820004B08F4E7802361681B024808EFE79A42FF
:10183000DCD00120D1E7C04600380140F369FFFF4A
:10184000FFCFFFFFFFF4FFFF00100240442300081A
:10185000004400400024F40000127A00436A30B5CE
:10186000DA0706D50168284C4A682240846A224378
:101870004A609A0706D50168244C4A682240C46A27
:1018800022434A605A0706D50168214C4A68224023
:10189000046B22434A601A0706D501681D4C4A684A
:1018A0002240446B22434A60DA0606D501681A4C8E
:1018B0008A682240846B22438A609A0606D50168B2
:1018C000164C8A682240C46B22438A605A0610D59F
:1018D0000168134D4A68046C2A4022434A60802202
:1018E0005203944205D14A680E4C2240446C224374
:1018F0004A601B0606D502680B4953680B40816C91
:101900000B43536030BDC046FFFFFDFFFFFFFEFFEE
:10191000FFFFFBFFFF7FFFFFFFEFFFFFFFDFFFFF8B
:10192000FFFFEFFFFFFF9FFFFFFFF7FF70B5041EF4
:1019300001D1012070BD050069352B78DBB2002B89
:1019400004D102006832137000F05AFC24230121F4
:1019500022682B70136820008B431360FFF7E4FEAE
:101960000128E6D0636A002B02D02000FFF776FF43
:1019700023680B495A6800200A4008215A609A6877
:101980008A439A60012219680A431A6022002023C0
:10199000E0666A3268342B7013702070CAE7C04664
:1019A000FFF7FFFF030030B569331B780200022008
:1019B000212B0FD114005234238811689BB2002BC5
:1019C00009D10A687E3082430A60402208680243D7
:1019D0000A60002030BD802095684001D36C8542AC
:1019E0000DD1106900280AD118880233C005C00D36
:1019F0000885D3642388013B9BB22380E9E7581C08
:101A0000D0641B780B85F5E74021026810B5136898
:101A10008B4313600300202269331A70FFF776FEB0
:101A2000002010BD020070B56A32117803682229C7
:101A30002DD1010080245C310D88998C64012940EE
:101A40008568436DA5421ED10469002C1BD1198005
:101A500002334365010000245A310B88013B9BB2DD
:101A60000B80A3420DD103680C4D19682940196001
:101A700099682335FF35A943996020231370FEF739
:101A8000FBFB200070BD5C1C44651970E2E7082276
:101A9000996902240A439A61F3E7C046DFFEFFFF1B
:101AA0000F2270B504000068C36901681A4008D1AC
:101AB00020252B4205D0294203D02000FFF7B2FF9A
:101AC00070BD8568002A60D00122154003D19026A0
:101AD0007600314259D0134205D0CE0503D50262BB
:101AE000E66E3243E2660222134206D0002D04D095
:101AF0000262E66E92183243E2660422134206D076
:101B0000002D04D00262E66E023A3243E2661A0702
:101B100008D58A0601D4002D04D008220262E06EA6
:101B20000243E266E26E002ACAD02022134204D0A9
:101B3000114202D02000FFF775FFE36E20001B0763
:101B400004D423689D6840231D401AD0FFF756FD3A
:101B5000402123689A680A420FD09A68606E8A43CF
:101B60009A60002809D0134B4363FEF712FE002849
:101B7000A6D0606E436B9847A2E72000FFF7C7FD31
:101B80009EE7FFF7C4FDE5669AE78022134205D081
:101B9000114203D02000FFF705FF91E740221342D6
:101BA00000D18DE7114200D18AE72000FFF72CFF1A
:101BB00086E7C046111700081FB5314C314B042190
:101BC0002360802361611B06C22101226360002320
:101BD000FF312000A360E3602261A361E36123621F
:101BE0006362A162E36223636263FEF7DBFB0028AA
:101BF00003D04A21244800F03FF9002301938023B9
:101C00005B010293802301A95B0520000393FEF78B
:101C1000E3FC002803D054211B4800F02DF90123D8
:101C200001A920000193FEF7D7FC002803D05C2116
:101C3000154800F021F9022301A920000193FEF7C5
:101C4000CBFC002803D064210F4800F015F90323D2
:101C500001A920000193FEF7BFFC002803D06C21EE
:101C6000094800F009F9042301A920000193FEF7B7
:101C7000B3FC002803D07421034800F0FDF81FBD19
:101C800044000020002401404823000810B5124BF6
:101C9000026886B09A421CD18020104A8000916967
:101CA000002401439161936901A903400093009BC3
:101CB00090201F23C00501931C3B02930394FEF761
:101CC0008BFD0C2022002100FEF7FCFC0C20FEF70F
:101CD00029FD06B010BDC04600240140001002409E
:101CE0008020364B00035969F0B5014359615A69A8
:101CF0008BB0024080200192019A5969C0030143D0
:101D000059615A699027024080200292029A5969CB
:101D100080020143596180215A69C902024003923D
:101D2000039A5A69FF050A435A615B69244E0B40C6
:101D3000049338000022C021049BFEF7FDFD002221
:101D400030000421FEF7F8FDE023002403251B02E8
:101D500005A91C48059306950794FEF73DFD1A4B0F
:101D600005A93800059306950794FEF735FDC023B5
:101D700005A905933800BF3B069307940894FEF726
:101D80002BFD042305A905933000033B069307941C
:101D90000894FEF721FD0D4B05A93000059306952B
:101DA0000794FEF719FDC02305A909480593069578
:101DB0000794FEF711FD0BB0F0BDC04600100240C5
:101DC00000040048000800482090000038FF000090
:101DD00000140048802330B55B0295B01193A02316
:101DE000012402259B0308A80894099410951293D6
:101DF0001394FEF7A7FD002800D0FEE7072302900A
:101E000003902100684600930195FEF7AFFF00287C
:101E100000D0FEE7069004A80494FFF753F8041ED0
:101E200000D0FEE7FFF738F8FA218900FEF780F9C5
:101E3000FEF782FC0420FEF799FC0120220021001D
:101E40004042FEF73FFC15B030BD10B5FA24FEF756
:101E50007BFAFFF7BFFFFFF743FF00F0DFF8FFF764
:101E6000ABFE00F0ADF900F05BF9FEF7EDF9A40070
:101E70002000FEF787FAFBE7FEE7000007B5012028
:101E8000114B99690143996180219A694905024082
:101E90000092009ADA6906380A43DA610022DB69A7
:101EA0000B4001931100019BFEF70CFC0022022065
:101EB00011004042FEF706FC0022012011004042C2
:101EC000FEF700FC07BDC046001002407047FEE769
:101ED0007047704710B5FEF747FAFEF756FC10BD85
:101EE00010B50248FEF708FB10BDC04644000020B4
:101EF00010B50248FFF73DF910BDC046D0000020E4
:101F000010B50248FFF7CCFD10BDC04610010020FF
:101F10000121114B11481A680A431A605A6802409D
:101F20005A601A680E4802401A601A680D4802404A
:101F30001A605A680C4802400F205A60DA6A8243DD
:101F4000DA621A6B094802401A635A6B8A435A6371
:101F500000229A607047C046001002400CB8FF088B
:101F6000FFFFF6FEFFFFFBFFFFFFC0FFECFEFFFFE2
:101F700007B50368114A934212D18020104A00012C
:101F800091690143916193690022034000930D2000
:101F90001100009BFEF796FB0D20FEF7C3FB07BD6B
:101FA000084A9342FBD10220054AD1690143D1611D
:101FB000D36903400193019BF1E7C046002C014027
:101FC00000100240000400407FB50368104A9342AD
:101FD0000FD1F0231B0100220193902002230392D2
:101FE00002930492059301A9C005FEF7F5FB07B023
:101FF00000BD084A9342FAD103230193013B0293A7
:102000000023039304930133059301A90248ECE7ED
:10201000002C0140000400400004004810B53D4B76
:102020003D4C202223600023A260D53290B0FF32C5
:1020300020006360E26023616361A361FFF786F9BA
:10204000002803D042213548FFF716FF00236946D8
:10205000200000930193FFF771FA002803D0492173
:102060002E48FFF709FF602300220293F933FF3364
:1020700002A9200003930492059206920792089207
:10208000FFF7C0F9002803D055212448FFF7F4FEDC
:102090000223042202A920000493FFF7B3F90028C9
:1020A00003D05B211D48FFF7E7FE0023082202A9A9
:1020B000200003930493FFF7A5F9002803D06221C1
:1020C0001648FFF7D9FE02230C2202A92000049330
:1020D000FFF798F9002803D068211048FFF7CCFEDD
:1020E00080220023920109A9200009930A930B93EF
:1020F0000C930D930E920F93FFF742FA002803D032
:1021000074210648FFF7B8FE2000FFF75DFF10B00E
:1021100010BDC046002C0140D00000206D230008F7
:10212000962210B5224B234C12012360224BE26011
:102130008022636000238AB092002000A3602261A5
:10214000A361FFF703F9002803D088211B48FFF79C
:1021500093FE002301A9200001930293FFF7EEF9FB
:10216000002803D08F211548FFF786FE60230393D4
:102170000023082203A92000049305930793FFF787
:1021800041F9002803D098210C48FFF775FE0C2276
:1021900003A92000FFF736F9002803D09D21074846
:1021A000FFF76AFE2000FFF70FFF0AB010BDC04620
:1021B0000004004090000020102700006D2300085C
:1021C0000C480D4B10B50360E1235B0243600C2209
:1021D000002342618360C36003618361C361036262
:1021E0004362FFF7A3FB002803D044210348FFF715
:1021F00043FE10BD10010020003801407A23000882
:1022000010B5134B026886B09A421ED18020114A45
:10221000C0019169002401439161936901A90340C0
:102220000093009BC0230193BE3B02930A480133F5
:10223000049303940594FEF7CFFA1B20220021009B
:10224000FEF740FA1B20FEF76DFA06B010BDC0463F
:102250000038014000100240000400480D48854647
:102260000D480E490E4A002302E0D458C4500433EE
:10227000C4188C42F9D30B4A0B4C002301E01360C5
:102280000432A242FBD3FFF743FE00F011F8FFF740
:10229000DCFDFEE700200020000000200C000020F4
:1022A000942300080C00002080010020FEE70000BD
:1022B00070B500260C4D0D4C641BA410A64209D12C
:1022C000002600F023F80A4D0A4C641BA410A64215
:1022D00005D170BDB300EB5898470136EEE7B30067
:1022E000EB5898470136F2E78C2300088C2300084E
:1022F0008C23000890230008002310B59A4200D1D7
:1023000010BDCC5CC4540133F8E70000F8B5C046FA
:10231000F8BC08BC9E467047F8B5C046F8BC08BC7F
:042320009E4670471E
:1023240002030405060708090A0B0C0D0E0F101012
:102334000102030405060708090A0B0C0D0E0F1011
:10234400000408022E2E5C5372635C6164632E6386
:10235400000000000000000000010203040607085A
:102364000900000000010203042E2E5C5372635C1A
:1023740074696D2E63002E2E5C5372635C757361F9
:0823840072742E6300000000DA
:04238C00E90000085C
:04239000C100000880
:0C2394006C6F6C0D0A00000000127A0053
:040000050800225D70
:00000001FF
