:020000040800F2
:1000000000200020893800084D3400084F340008D3
:1000100000000000000000000000000000000000E0
:100020000000000000000000000000005134000843
:1000300000000000000000005334000855340008A0
:10004000D938000800000000D9380008D938000865
:10005000D9380008D9380008D9380008D93800083C
:1000600000000000D9380008D9380008D938000845
:100070005D3400086D340008D93800080000000025
:10008000D93800087D34000800000000D938000885
:10009000D9380008D9380008D9380008D9380008FC
:1000A000D9380008D9380008D93800088D3400083C
:1000B000D938000800000000000000000000000027
:1000C00010B5064C2378002B07D1054B002B02D02E
:1000D000044800E000BF0123237010BD0C00002085
:1000E0000000000048390008044B10B5002B03D075
:1000F0000349044800E000BF10BDC04600000000F6
:10010000100000204839000802B47146490849002F
:10011000095649008E4402BC7047C04602B471467D
:1001200049084900095C49008E4402BC7047C0463A
:10013000002243088B4274D303098B425FD3030A26
:100140008B4244D3030B8B4228D3030C8B420DD339
:10015000FF22090212BA030C8B4202D312120902C7
:1001600065D0030B8B4219D300E0090AC30B8B4205
:1001700001D3CB03C01A5241830B8B4201D38B03B3
:10018000C01A5241430B8B4201D34B03C01A524158
:10019000030B8B4201D30B03C01A5241C30A8B429B
:1001A00001D3CB02C01A5241830A8B4201D38B0286
:1001B000C01A5241430A8B4201D34B02C01A52412A
:1001C000030A8B4201D30B02C01A5241CDD2C3099C
:1001D0008B4201D3CB01C01A524183098B4201D318
:1001E0008B01C01A524143098B4201D34B01C01A03
:1001F000524103098B4201D30B01C01A5241C3087B
:100200008B4201D3CB00C01A524183088B4201D3E9
:100210008B00C01A524143088B4201D34B00C01AD5
:100220005241411A00D20146524110467047FFE741
:1002300001B5002000F006F802BDC0460029F7D045
:1002400076E770477047C0468446081C6146FFE762
:100250001FB500F02BFA002801D40021C8421FBDB1
:1002600010B500F0BDF94042013010BD10B500F0EE
:100270001DFA002801DB002010BD012010BDC04682
:1002800010B500F013FA002801DD002010BD012098
:1002900010BDC04610B500F0C9F9002801DC0020EF
:1002A00010BD012010BDC04610B500F0BFF90028F8
:1002B00001DA002010BD012010BDC046F0B5C646D1
:1002C0004E024702760A7B0A4400C50FF700480039
:1002D000984600B5240E2A00DB00000EC90FBC466C
:1002E0008D4267D0221A002A00DCA5E000283AD10E
:1002F000002F00D193E0511E002900D0BCE0012462
:10030000DB1B5A0146D59B019E09300001F0ECF839
:1003100005388640844200DD9DE0041B3200202029
:100320000134E240041BA64033005E1EB3410024AA
:1003300013435A0704D00F221A40042A00D0043372
:100340005A0129D50134FF2C00D181E02A009B01FC
:100350005B0AE4B25B02E405580AD207204310436B
:1003600004BC9046F0BDFF2CE3D080213800C904C6
:10037000084384461B2A00DD82E020206146D140EC
:10038000821A604690400200501E82410A439B1A26
:100390005A01B8D45A07CED1DE082A00FF2C3AD130
:1003A000002E00D1AEE08023DB0333435B025B0A07
:1003B000FF24CFE7211A002952DD002831D0FF2C7D
:1003C000B7D080203E00C0040643B4461B2900DDA0
:1003D000AAE020266046C840711A66468E40310069
:1003E0004E1EB14101435B185901D3D50134FF2C96
:1003F00000D187E0012278491A405B080B40134383
:1004000097E7002C00D0A7E0002B00D0B6E03B1E01
:1004100062D10026002273025B0AE4B29AE714005C
:1004200087E7002F4DD0481E002857D16344012490
:100430005A01AFD50224DDE7002A24D1621CD2B2D2
:10044000012ADEDDDE1B720135D5FE1A0D005CE7E8
:100450002A0000237EE73300604A241A134068E72D
:10046000002963D1611CC8B201284EDDFF2949D0A3
:1004700063445B080C005CE7FF2A41D00A0079E77F
:1004800001229B1A84E7002C1DD0FF2822D0802453
:10049000E404524223431B2A00DD8AE01C0020258D
:1004A000D440AA1A93405A1E934123436246040043
:1004B000D31A0D0025E7002E00D026E700220024E5
:1004C000A9E70C0035E7002B4DD0D243002AEDD030
:1004D000FF28E0D16346FF240D002AE7FF290FD053
:1004E000010073E7002B61D0FF24002F00D120E72B
:1004F00080224146D203114202D0164200D13B0075
:10050000FF2416E7FF24002324E7002CEAD1002B68
:1005100058D0002F00D10CE763445A0100D439E7CA
:100520002E4A0C00134004E701215CE7002C1ED189
:10053000002B40D0C94300290BD0FF2836D01B29FF
:1005400047DC1C002026CC40711A8B40591E8B4181
:1005500023436344040047E7002B18D13B1E2DD0F2
:100560000D00FF24E5E63B0004000D00E1E6FF2856
:100570001CD08024E40449422343E0E7002F00D14B
:10058000D7E6DE1B72011FD5FB1A0D00D1E6FF2452
:10059000002F00D1CDE680224046D2031042AFD0DA
:1005A0001642ADD13B000D00FF24C2E66346FF2496
:1005B000BFE601237AE73B000400BAE6802600226A
:1005C000F603F0E63B00B4E6331E00D0E2E600227C
:1005D00021E70123BDE7C046FFFFFF7DFFFFFFFBD3
:1005E00070B5420045024E024C00C30F6D0A120E58
:1005F000760A240EC90F0120FF2A06D0FF2C03D053
:10060000A24201D1B54206D070BD002DFCD1FF2C15
:10061000FAD1002EF8D18B4206D00120002AF3D166
:100620002800451EA841EFE70020EDE7F0B54200A5
:1006300045024C02C30F48006D0A120E640A000EF8
:10064000C90FFF2A1ED0FF2821D0002A0AD16E42EE
:100650006E41F6B200280FD1002C0DD10020002DE4
:1006600009D005E0002801D1002C01D08B4211D027
:10067000012158420843F0BD002EF7D00120013976
:100680000843F8E7002DDED002204042F3E7002CBB
:10069000DBD0F9E78242EBDC04DBA542E8D800209E
:1006A000A542E8D20121581E0843E4E7F0B5420014
:1006B0004D024C004602760A120EC30F6D0A240E3C
:1006C000C90FFF2A16D0FF2C18D0002A0AD1704279
:1006D0007041C0B2002C15D0002805D0012001398E
:1006E0000843F0BD002C13D0994214D001205B4286
:1006F0001843F6E70220002EF3D1E4E70220002D94
:10070000EFD1E2E7002DE7D10020002EE9D0EDE7A0
:10071000002DE9D1EAE7A24206DCDFDBAE4203D8D6
:100720000020AE42DAD3DCE7012049420843D8E793
:10073000F8B557464E464546DE46E0B54702460008
:1007400088467F0A360EC40F002E47D0FF2E24D0D5
:10075000FB008027FF041F43002399469A467F3EF3
:1007600043465D025800DB0F6D0A000E984643D0E9
:10077000FF283BD0EB0080250022ED041D437F388D
:100780003618731C41469B464B46614013430F2B62
:1007900064D875489B00C3589F46002F42D1082358
:1007A0009946063BFF269A46DAE74146022A28D0B8
:1007B000032A00D1CEE0012A00D0ACE01140002095
:1007C0000022CCB24002D205400AE4071043204385
:1007D0003CBC90469946A246AB46F8BD002F15D1C9
:1007E00004239946033B00269A46B9E7FF200222DC
:1007F000002DC5D00322C3E7002D19D1002001220E
:10080000BEE70124FF220C400020DBE7380000F0A7
:100810006BFE7626431F9F4000237642361A994688
:100820009A469DE70C239946093BFF269A4697E78F
:10083000280000F059FE431F9D4076235B42181AA2
:1008400000229DE780200024C003FF22BAE73D007C
:100850005246ABE73D0021005246A7E73B0C9C46C1
:100860002A04120C2B0C1400604665463F043F0C12
:100870007C4342435D437B43270C9B18FF18BA42DD
:1008800003D980235B029C46654424043A04240C6B
:10089000121993015C1EA3413F0C920E7D191A435D
:1008A000AD0115432B0104D501235E466A081D40A6
:1008B000154332007F32002A25DD6B0704D00F2359
:1008C0002B40042B00D004352B0103D53200274BDD
:1008D00080321D40FE2A94DC0124A801400AD2B2D5
:1008E0000C406FE78020C003074207D0054205D1C6
:1008F00028434002400A4446FF2263E7384340024F
:10090000400AFF225EE70124A31A1B2B05DD0C40E1
:100910000022002056E75E46CBE72A002020DA407E
:10092000C31A9D402B005D1EAB4113435A0704D0F0
:100930000F221A40042A00D004335A0104D501249E
:1009400001220C4000203DE701249B01580A0C4085
:10095000002237E780200124C00328434002400AD8
:100960000C40FF222EE7C04680390008FFFFFFF74A
:10097000F0B54F46D64646464400C0B5C20F4702C2
:100980004802400A844666467B0A4800C90F9A46D8
:10099000240E1500DB00000E8946F600FF2800D16A
:1009A0008FE001214F464F403900914266D0221A14
:1009B000002A00DC9DE000283DD1002E00D18BE014
:1009C000511E002900D0B5E001249B1B5A0144D5DB
:1009D0009B019F09380000F087FD0538874084425D
:1009E00000DD96E0041B3A0020200134E240041BA5
:1009F000A7403B005F1EBB41002413435A0704D0AD
:100A00000F221A40042A00D004335A0127D501349A
:100A1000FF2C00D179E001229B015B0AE4B22A405D
:100A20005B02E405580AD207204310431CBC9046E1
:100A30009946A246F0BDFF2CE0D08021C9040E43A8
:100A40001B2A7BDC31002020D140821A9640721E86
:100A500096410E439B1B5A01BAD45A07D0D10122AA
:100A6000DF082A40FF2C33D1002F00D1A8E08023DB
:100A7000DB033B435B025B0AFF24D1E7211A002919
:100A80004CDD00282AD0FF2CB8D08020C0040643BB
:100A90001B2900DDAFE030002027C840791A8E40C6
:100AA000711E8E4106439B195901D6D50134FF2C86
:100AB00000D185E001227A491A405B080B401343BC
:100AC0009CE7002E00D070E76BE73B1EC5D10022EB
:100AD0007B025B0AE4B2A3E714008FE7002E4DD03F
:100AE000481E002857D19B1901245A01B5D502246C
:100AF000E0E7002A25D1621CD2B2012A72DD9F1BD9
:100B00007A0135D5F71A0D0064E7012200232A4047
:100B100086E73B00634A241A13406FE700296CD133
:100B2000611CC8B201284EDDFF2949D09B195B0822
:100B30000C0063E7FF2A41D00A0081E701269B1BD6
:100B400089E7002C1CD0FF2821D08024E4045242E5
:100B500023431B2A00DD96E01C002025D440AA1A5E
:100B600093405A1E93412343F31A04000D002DE7CE
:100B7000002F00D02EE700220024A9E70C003DE75B
:100B8000002B58D0D243002AEED0FF28E1D1330009
:100B9000FF240D0032E7FF2910D0010078E7002B79
:100BA0006ED0FF24002E00D128E780225146D203C8
:100BB000114203D06146114200D13300FF241DE7EA
:100BC000FF2400232CE7002CE9D1002B63D0002E5A
:100BD00000D113E79B195A0100D43EE7314A0C00BB
:100BE00013400BE7002C1ED1002B2FD1002E4FD02D
:100BF00033000D0002E7012655E7002C1FD1002B22
:100C000043D0C94300290BD0FF2839D01B2944DC2D
:100C10001C002027CC40791A8B40591E8B4123435E
:100C20009B19040040E7002B1AD1002E24D1802705
:100C30000022FF031BE7330004000D00DEE6FF285F
:100C40001ED08024E40449422343DFE7002E00D174
:100C5000D4E69F1B7A0100D437E7F31A0D00CDE6E6
:100C6000FF24002E00D1C9E680225046D203104254
:100C7000A4D060461042A1D133000D00FF24BDE690
:100C80003300FF24BAE601236EE733000400B5E623
:100C9000002700221CE73300B0E60123C0E7C0466E
:100CA000FFFFFF7DFFFFFFFB41024300C20F490A28
:100CB0001B0E00207E2B0DDD9D2B0CDC8020000404
:100CC0000143952B0ADC9620C31AD9404842002ADA
:100CD00000D108007047034BD018FBE7963B9940C2
:100CE000F4E7C046FFFFFF7FF0B557464546DE46B6
:100CF0004E46E0B54C000E0387B0834692461D0079
:100D00008046360B640DCF0F002C4FD06F4B9C42AA
:100D100035D08023420F1B04F6001343334399461A
:100D2000C30098466A4B00269C4600236444039304
:100D30002B031B0B9B466B00ED0F50465B0D019583
:100D40005ED0624A934253D05A46D1008022400F6F
:100D5000120402430A4393465246D1005C4A944629
:100D6000002263443800684084460290E41A164327
:100D70000F2E00D9B4E0574BB6009B599F46030095
:100D8000334399466CD100239846023308260393D7
:100D9000CEE7CB464146039A0197022A65D1019BD3
:100DA0004A4C9C460023002298466BE003003343E4
:100DB00099464ED0002E00D1BCE1300000F094FBEB
:100DC00003000B3B1C2B00DDACE11D22D31A5A465D
:100DD0000100DA4008398E401300334399465B46E0
:100DE0008B40984600233C4C0026241A03939FE72F
:100DF00051465A46114329D1002293460232B1E7A7
:100E0000594601431ED05B46002B00D19EE1584657
:100E100000F06AFB03000B3B1C2B00DD8FE102009E
:100E20005946083A91408B461D21CB1A5146D9406C
:100E30000B0059460B4351469B469140264B0022DE
:100E40001B1A8FE7002301229B468BE751460322A2
:100E500088E700239846013304260024039367E7BC
:100E60000323B14603930C2662E7032A00D15CE218
:100E7000019B012A00D0E4E113409C46002300249A
:100E80000022984600211203130B0A0D12051A4383
:100E90002305124C40462240134362465B00D207B2
:100EA0005B081343190007B03CBC90469946A24624
:100EB000AB46F0BD002380229C4612039846034CAB
:100EC000E0E70023014C00229846DBE7FF07000023
:100ED00001FCFFFFC03900080DFCFFFFFFFF0F8082
:100EE000D94500D939E100D134E1002346464D46C9
:100EF0009A46013C5B460A0E1B021A430B02170C72
:100F0000039313041B0C3900280090460193FFF74C
:100F10000FF90200019B83465A432800390091468D
:100F2000FFF78CF9350C09040D43A9450DD95B4633
:100F30004544013BA84500D93AE1A94500D837E12D
:100F400002235B429C464544E3444B46EB1A39007E
:100F500018000493FFF7ECF8019B050043433900A8
:100F600004989946FFF76AF9330409041B0C0B43F4
:100F7000994509D943446A1E984500D91AE1994513
:100F800000D817E1023D43444A469B1A5A461204D0
:100F90002A4303999346100C0A0C914609045A46B9
:100FA000090C4E460D001204120C454305915143A5
:100FB0007243704352190E0CB218954203D9802522
:100FC0006D02AC466044150C09041204090C281883
:100FD0005218834200D2CEE000D1C8E01D1A534619
:100FE0009E1AB24592415242AB1A9A46984500D198
:100FF00017E139001800FFF79BF8019B05004343F8
:10100000390050460493FFF719F904980B04310C8A
:101010001943884209D941446B1E884500D907E12C
:10102000884200D804E1023D4144049BCB1A1800D9
:1010300039000493FFF77CF8019B82464343390053
:1010400004980193FFF7FAF801980B043104090C96
:10105000194388420DD953464144013B884500D984
:10106000E8E0884200D8E5E002235B429C46414428
:10107000E244019B2D04CE1A51462943059D4F465B
:101080002A000B04080C1B0C5A4345437B4378434E
:101090005B19170CFB189D4203D980256D02AC46E5
:1010A00060441D0C12041B04120C28189B18864265
:1010B00000D293E000D18EE001231943A04BE31846
:1010C000002B00DC99E04A0700D09EE05A46D2018E
:1010D00006D55A469B4B1A4080239346DB00E31803
:1010E000994A934268DD0123029A984C1A400023E2
:1010F000944698460022C5E680224B4612031342CE
:101100000AD05B46134206D11A431203120BAC46B7
:1011100088468E4CB6E64B461A431203120BBC4669
:101120008A4CAFE603005A46283B9A40002391467A
:10113000984657E6584600F0D7F9203040E60300BD
:101140005246283B9A400021934677E600F0CCF9BE
:1011500020305FE6884500D2C7E64B46DE075D08D3
:1011600043465B081E434346DB079A46C2E600251A
:10117000924500D333E7039E5946B446E244B24554
:10118000AD416D424544EB180139984507D298426C
:1011900000D97FE000D1BCE01D1A8B461FE79845BF
:1011A000FAD1039D5545F2D943468B461D1A16E7E1
:1011B0009B46CAE61500E7E65A46C90852070A43A5
:1011C0005B0590465C0D5A46012302995202194074
:1011D000120B8C4656E6002B00D16FE746444A1EA0
:1011E000B04529D91100864200D065E7039A9342A1
:1011F00000D061E762E7012149420120C21A382A82
:1012000021DD029B03409C4638E60F220A40042A57
:1012100000D15BE70A00111D914292415242934472
:1012200054E7474BE318002BE5DD01225242F2E779
:101230001D00FAE69A461CE7B04239D86ED011007C
:101240003AE702933AE71F2A3CDC20239B1A0C0062
:101250005846994098404B1E99415B46D440D34034
:10126000204308431A00430709D00F230340042BEF
:1012700005D00100081D88429B415B42D218130231
:101280003AD50123029A01241A4000239446984635
:101290000022F7E5022149428C46039DE344AC4617
:1012A000E244AA45AD416D424544ED182D1A96E63B
:1012B0008A1E03994D008D42894149424144761866
:1012C00003958FE71F204042C31A5846D8400300B9
:1012D000202A28D040205D46821A954029434A1E84
:1012E00091411943072300220B4009D00F2300220C
:1012F0000B400800042BBDD1010053075202120B12
:10130000C9081943012388460299002419408C46D4
:10131000B8E55245BED88B46002560E6039D9D4248
:10132000C6D3110062E70025D8E780225B4612038E
:101330001A43019B1203120B9C468846034CA1E5FD
:10134000FF030000FFFFFFFEFE070000FF07000095
:1013500070B5002830D0C317C4185C40C50F2000FA
:1013600000F0C2F8174B184A1B1AD21A1F2A18DDB0
:10137000164AD21A9440002224035B05240B5B0D0D
:101380000021100024030A0D240B12052243104CE7
:101390001B05224013435B00ED075B082B4319003C
:1013A00070BD210091400A000B21081AC4405B0562
:1013B0002403240B5B0DE3E7002500230024002217
:1013C000DEE7C0461E0400003304000013040000E2
:1013D000FFFF0F80F0B54C00640D0B03621C450F3E
:1013E0005B0A52052B43C90FC500520D012A28DDA7
:1013F0003A4AA618FE2E1BDC002E3EDD80010200BC
:10140000501E82416D0F2A43DB0013435A0704D05C
:101410000F221A40042A00D004338022D2041A403A
:101420005AD00136FF2E03D09B015B0AF4B201E0D3
:10143000FF2400235802E405400AC907204308435B
:10144000F0BD002C07D01D43F2D08020DB008004CB
:101450000343FF26DAE72B4303D00523DB08FF2CE9
:1014600003D05B025B0AE4B2E4E7002B32D08020B9
:10147000C00303435B025B0ADCE73200173214DB74
:1014800080221E2712041343BF1B1F2F0FDC144A98
:10149000944664442A00A5402E00A340751EAE4128
:1014A000FA40334313430026B0E70024D5E7022275
:1014B0005242961B1A00F240202F09D00948844658
:1014C0006444A3402B435D1EAB41002613439DE7BC
:1014D0000023F7E70023ADE73400BFE780FCFFFF00
:1014E00082FCFFFFA2FCFFFF1C2101231B0498428A
:1014F00001D3000C10391B0A984201D3000A0839A5
:101500001B09984201D30009043902A2105C40185B
:101510007047C046040302020101010100000000FF
:101520000000000010B500F0F7F800F005F800F03A
:10153000FFF800F079F810BD002210B5034B044904
:101540001A600448013201F065FB10BD480000201C
:101550004C0000208C0100202C4BF7B5984243D161
:101560002B4C2C4D2368EA5C0A2A01D00D2A4AD163
:10157000002B33DD002318001A00274901930B705C
:10158000AF5C0D2F01D00A2F18D1002B00D00870AE
:1015900000F060F80198FFF7DBFE00221F4BFFF719
:1015A000A3FBFFF717FF1E4F3860380000F05AF911
:1015B00005221C49154801F0FFFA0DE0302676425D
:1015C000B446BC446646092E12D92D2F01D1002AFB
:1015D0000BD0002B00D0087000232360216801226B
:1015E00069180A4801F016FBF7BD012318001A001C
:1015F0000A26019F7743BC46AF5C0132303F3E0074
:1016000066440196BCE70133E7E7C0468C01002041
:10161000480000204C00002044000020006AF840F0
:10162000280000200000002010B5024801F048F812
:1016300010BDC0460C010020002307B502680193CD
:10164000034B9A4202D101A800F00CF907BDC04635
:10165000001000400022024B1B685A627047C046CF
:101660000C010020902010B501228021C00500F05F
:101670000FFC10BD902010B501224021C00500F0E4
:1016800007FC10BD10B5064C200001F00DF89622A5
:1016900023681201DA630821200001F0F7F910BD78
:1016A000CC00002070B50500054C200000F0FCFFC8
:1016B00023680821DD63200001F0E8F970BDC04611
:1016C000CC00002010B5064C200000F0EDFF962263
:1016D000236812011A640C21200001F0D7F910BD13
:1016E000CC00002070B50500054C200000F0DCFFA8
:1016F00023680C211D64200001F0C8F970BDC046AC
:10170000CC00002010B501220421024800F0C0FBEB
:1017100010BDC0460004004810B5FFF7A3FFFFF757
:10172000A9FFFFF7AFFFFFF7CDFFFFF7EBFF10BDFE
:1017300010B50F4C200000F0B7FFF6222368FF32EF
:101740005A6300219A632000DA631A6401F09EF95B
:101750000421200001F09AF90821200001F096F9F7
:101760000C21200001F092F90022024B1A7010BDEA
:101770004C0100204400002070B50E001749041CE5
:101780001500FEF787FD002800D0144C144B1B7881
:10179000002B10D1FE21201C8905FEF78FFDFC21B6
:1017A0008905FEF7C5FF011C2860FE208005FFF7B4
:1017B000DFF8306070BD012BFCD1FE21201C8905B3
:1017C000FEF77CFDFC218905FEF7B2FF011C3060AD
:1017D000FE208005FFF7CCF82860EBE73333733F3A
:1017E0004400002070B504680E00201C104915004C
:1017F000FEF750FD002819D10E49201CFEF736FDDA
:10180000002800D00B4C0C49201CFEF791FF0B491F
:10181000041CFFF7ADF8FFF747FA08493060201CB9
:10182000FEF74CFDFFF740FA286070BD004CEAE778
:101830003333733FD0CC4C3D0000FA4300002041CD
:1018400030B50025064C246865630968A16301680A
:101850006163E5631B6823641368E36330BDC046BE
:101860004C010020F8B5104F104E3A0031000068CE
:10187000FFF782FF0E4D0F4C290022003000FFF7CA
:10188000B1FF0D4E380032000C49FFF7ABFF2A00C4
:10189000310023000948FFF7D3FF2800FFF702FFBC
:1018A0002000FFF71FFFF8BD780000206C0000202B
:1018B00070000020680000207400002064000020F8
:1018C00010B5040000F094FDFA218900FEF730FC09
:1018D00000F0F0F9012000222100404200F0B0F9B0
:1018E000002010BD1023064A10B5116800200B43DC
:1018F0001360FFF7E5FF01F091FD002010BDC04629
:1019000000200240024A1368013313607047C0464A
:101910007C000020014B18687047C0467C00002006
:10192000F8B504000120002C72D0636C002B06D1A6
:1019300022004032A3642000137001F06DFC636C40
:10194000DB0600D579E0042223689868104000D0B7
:1019500073E0626C4249114002220A43032162642F
:101960009A680A40012A00D06DE01968114202D13C
:10197000DA68120467D5DA683A49256A0A40DA60FB
:10198000A2696F039103E269D2031143626B013ACA
:10199000561EB2411603E268114322690F43022A20
:1019A00000D10420226B616A52003A433243024361
:1019B000012904D1002D2CD1802149020A43C220E3
:1019C000A16AFF30814202D0E06A01430A438020CD
:1019D000D96840051143D960A16B814202D0481EED
:1019E000062807D8072558692940A843586158692F
:1019F00001435961DB681C490B409A4211D1002018
:101A00000322A064636C93431A00012313436364AD
:101A1000F8BD2020656C28436064A06C0143A1647C
:101A2000CDE71222636C012093431A001023134365
:101A30006364A36C0343A364EAE71023626C012090
:101A400013436364E4E71821DA688A43A1680A4310
:101A5000DA601969626889008908114319618AE7A7
:101A6000FDFEFFFF1902FEFFE7FF3F83704770474F
:101A7000704700000422036870B519680400114221
:101A800002D05968114206D108221968114228D0A3
:101A90005968114225D0626CD20604D48022616C50
:101AA00092000A436264C022D9681201114212D125
:101AB000226A002A0FD11A6812070CD59A685207B9
:101AC0003CD40C215A688A435A60636C204A1A40FD
:101AD0000123134363642000FFF7C8FF0C2223682F
:101AE0001A60802523681A682A420CD05B682B4252
:101AF00009D08023626C5B02134363642000FFF70C
:101B0000B6FF23681D60102223681968114214D0A3
:101B10005968114211D0626B012A02D0DA68D207EB
:101B200008D50222A16C20000A43A26410221A6088
:101B3000FFF79EFF102223681A6070BD2023626C9D
:101B4000134363640123A26C1343A364C3E7C04639
:101B5000FEFEFFFFF7B50023040001934034237815
:101B600005000220012B2BD001232A68AE6B906860
:101B70002370400752D42C484F680D6887423BD0F1
:101B8000AB4018008023976A5B05384390629E4201
:101B90000FD0013E062E0CD98B68072150690840F2
:101BA000834206D050690B4088435061506903431B
:101BB00053612B00103B012B03D90020002323701D
:101BC000FEBD1A4B80221968102D13D0D2030A4390
:101BD0001A60102DF1D1164B16491868FEF7A8FAB5
:101BE0000A2358430190019B002BE6D0019B013B47
:101BF0000193F8E71204EAE7AB40916A99432B009E
:101C0000103B9162012BD8D8084B1A68102D03D0D5
:101C100009490A401A60D0E70849FAE72022696CAE
:101C200018000A436A64C9E7011000000827014050
:101C30000800002040420F00FFFFBFFFFFFF7FFFB3
:101C400070B58901002814DA0F23C0B20340083BA5
:101C5000114A9B089B009B18032210409040FC32C5
:101C60001500114085408140DC69AC432143D961B6
:101C700070BD032583082840A840FC352E00074A84
:101C80009B009B18C02286402940814092009C58AE
:101C9000B44321439950EBE700ED00E000E100E0A0
:101CA0001F2318401E3B8340014A13607047C04603
:101CB00000E100E0094A431E012093420DD8C021F3
:101CC000074A08485360036A09061B021B0A0B43B4
:101CD000036200200723906013607047FFFFFF003E
:101CE00010E000E000ED00E070B5841CE37F022B03
:101CF00004D004238363033B180070BD0E210368E6
:101D0000056C1A688A431A600122196891431960A8
:101D10001100A940C36B5960E27700248318426B1D
:101D2000DC771300A242E7D090472300E4E70000ED
:101D3000F0B50B6887B0029300230191029ADA4054
:101D400001D107B0F0BD01229A4003920399029A93
:101D50000A40009200D18CE0019A102152681600CE
:101D60008E43022E0ED107251D40AD000139A9403A
:101D7000DC08A4000419276A8F4301990969A94066
:101D80000F43276203245F00BC40E4430568013E23
:101D90002540AC4603251540BD4061460D43056016
:101DA000012E0FD801998668CD682640BD40354385
:101DB00085604668039915098E4301210D409D40B9
:101DC00035434560C56801992C408D688021BD4030
:101DD00049052C43C4600A424BD00121264C0326FE
:101DE000A5691E400D43A561A4699D080C4005949A
:101DF000059C0F242149AD00B6006D18B440902118
:101E0000AF68C905A743002488420CD01C4901349F
:101E1000884208D01B490134884204D01A4903344F
:101E2000884200D1023CB44000993C430E00AC60B3
:101E3000164CCD4327683E43D10301D43E002E40CB
:101E400026606768009E3E43910301D43E002E4009
:101E50006660A768009E3E43D10201D43E002E403A
:101E6000A660E668009F3743920201D42E403700F7
:101E7000E760013362E7C046001002400000014005
:101E80000004004800080048000C0048000401401D
:101E9000002A01D0816170478162FCE7F0B50368D8
:101EA00085B00500DB072FD42B689B0700D581E0A8
:101EB0002B681B0700D5BCE02B685B0700D5DFE073
:101EC0002B68DB061AD56A69B54C0423012A00D0B9
:101ED0004BE1616B02260B436363636B1A436263DE
:101EE000FFF718FD0700636B334200D136E1F8219C
:101EF000626BAB698A43DB0013436363296A002981
:101F000000D059E1002013E00C21A54C62680A4082
:101F1000042A06D063680B40082B0BD16368DB03EF
:101F200008D523689B03BFD56B68002BBCD101206B
:101F300005B0F0BD6B68012B13D1802322685B02D2
:101F400013432360FFF7E6FC80260700B6022368F0
:101F50003342A9D1FFF7DEFCC01B6428F7D9032068
:101F6000E6E7002B16D123688E4A802613402360B3
:101F700023688D4AB60213402360FFF7CBFC0700AD
:101F80002368334200D18FE7FFF7C4FCC01B6428ED
:101F9000F6D9E4E7052B05D180232268DB02134341
:101FA0002360CAE723687F4A1340236023687E4A80
:101FB0001340C6E70C227A4C6368134206D063686C
:101FC0001340082B10D16368DB030DD423689B07F3
:101FD00002D5EB68012BAAD1F82122682B698A432C
:101FE000DB001343236063E7EA680123002A0FD074
:101FF0002268022613432360FFF78CFC0700236846
:102000003342E9D1FFF786FCC01B0228F7D9A6E7C7
:10201000226802269A432260FFF77CFC07002368AF
:10202000334200D144E7FFF775FCC01B0228F6D904
:1020300095E7EA6901235A4C002A10D0626A022609
:1020400013436362FFF766FC0700636A334200D004
:1020500032E7FFF75FFCC01B0228F6D97FE7626A10
:1020600002269A436262FFF755FC0700636A334217
:1020700000D121E7FFF74EFCC01B0228F6D96EE71E
:1020800080220021464C5205E3690091134208D199
:10209000E3691343E361E36913400393039B012363
:1020A00000938027414E7F0033683B4206D0AB68E7
:1020B000012B13D1226A1343236230E033683B4380
:1020C0003360FFF727FC019033683B42EFD1FFF705
:1020D00021FC019BC01A6428F6D940E70122002B9D
:1020E00014D1236A022793432362236A0332934362
:1020F0002362FFF70FFC0600236A3B4225D0FFF75F
:1021000009FC2B4B801B9842F6D928E7052B0BD1F5
:10211000216A013B0B432362236A1A432262FFF7C1
:10212000F9FB022706000DE0236A93430422236291
:10213000236A9343C0E7FFF7EDFB1D4B801B9842DA
:1021400000D90CE7236A3B42F5D0009B012B00D05D
:10215000B6E6E369174A1340E361B1E6FFF7DAFB3D
:10216000C01B022800D8BEE6F9E6053203D1626B37
:102170009A436263BBE6626B0226134301226363E8
:10218000636B93436363FFF7C5FB0700636B3342E5
:1021900000D1B3E6FFF7BEFBC01B0228F6D9DEE68E
:1021A00000100240FFFFFEFFFFFFFBFF007000403A
:1021B00088130000FFFFFFEF0C22264C012063680C
:1021C0001340082B00D1B3E62368234A1340236051
:1021D00002292FD1FFF79EFB80260700B604236853
:1021E000334221D10F22E36A9343EA6A1343E36245
:1021F000696AAB6A62680B43184980250A40134339
:102200006360802322685B0413432360FFF782FB33
:102210000600AD0423682B4200D073E6FFF77AFB7B
:10222000801B0228F6D99AE6FFF774FBC01B022830
:10223000D5D994E6FFF76EFB80250600AD04236830
:102240002B4200D15EE6FFF765FB801B0228F6D922
:1022500085E6C04600100240FFFFFFFEFFFFC2FF01
:1022600070B5144C88B010222100684601F05AFB6A
:10227000210004AD10221031280001F053FB0C2284
:102280000D4E73681A40082A11D10F206A46990C26
:102290000140545CF26A0240A95CDB0305D50748A3
:1022A000FDF746FF604308B070BD0548FAE70348F4
:1022B000F9E7C046603900080010024000127A00B9
:1022C00000093D00F7B50122434C060023680F00CA
:1022D00013408B421CD33268930723D4D30729D4ED
:1022E000012322681A40974267D333683B4C5B074F
:1022F0006AD4FFF7B5FF6368394A1B061B0FD35C2E
:10230000D840384B18600020FFF7DAFA002008E0C8
:10231000236893430B432360236813409942DAD028
:102320000120FEBDF0202D494B688343B068034374
:102330004B60D3E7294D72682B68012A1AD19B03A1
:10234000EED503216B688B4313436B60FFF7E2FA12
:1023500073680190012B15D10C226B681340042B7C
:10236000BED0FFF7D7FA019BC01A1F4B9842F3D992
:102370000320D6E7022A02D19B01E2D4D0E79B07D3
:10238000DFD4CDE7022B12D00C226B681342A7D00A
:10239000FFF7C0FA019BC01A134B9842F4D9E7E744
:1023A000FFF7B8FA019BC01A0F4B9842E0D80C22F5
:1023B0006B681340082BF3D192E722689A4322609E
:1023C00022681A42ACD190E76368084A1340F26869
:1023D000134363608DE7C0460020024000100240B6
:1023E000043A00080800002088130000FFF8FFFFEF
:1023F000014B18687047C04608000020044B054A8E
:102400005B685B055B0FD35C034A1068D84070477C
:1024100000100240143A000808000020F0B50368DC
:1024200085B00500DB0328D580220021374C5205FA
:10243000E3690091134208D1E3691343E361E3695F
:1024400013400393039B012300938027304E7F00AA
:1024500033683B4226D0C022236A920013402D4E9F
:1024600032D1236A1E406B681E43009B2662012BFB
:1024700003D1E369284A1340E3612A68D30706D5EC
:10248000032022490B6B8343A86803430B6300209E
:10249000930617D510211D4A136B8B43E9680B4334
:1024A00013630FE033683B433360FFF733FA019067
:1024B00033683B42CFD1FFF72DFA019BC01A642845
:1024C000F6D9032005B0F0BD69680A409342C8D030
:1024D0008023226A206A11005B0203432362236A7D
:1024E0000E483140034023622162D307B9D5FFF77C
:1024F00011FA07000222236A1342B2D1FFF70AFA47
:10250000074BC01B9842F5D9DBE7C04600100240DC
:1025100000700040FFFCFFFFFFFFFFEFFFFFFEFF2B
:10252000881300000122036A70B593430362036AB3
:1025300044688569723295430A68154302229343C1
:102540008A681343144A904208D0144EB04205D012
:10255000134EB04202D0134EB04216D10826B343F8
:10256000CE6833430426B343904208D00B4A9042CE
:1025700005D00B4A904202D00A4A904205D10A4A3D
:102580008E6922404C69344314434A684460856133
:102590004263036270BDC046002C01400040014010
:1025A0000044014000480140FFFCFFFF70B5732567
:1025B000036A174A13400362036A4268C469AC4362
:1025C0000D682C43134D2B408D682D022B43124D6B
:1025D000A8420ED1114D1D40CB681B022B43104D5C
:1025E0002B40104D4E6915408A69324312012A432F
:1025F00008E00D4DA842F4D00C4DA842F1D00C4D8E
:10260000A842EED042604A68C461C263036270BDF2
:10261000FFFEFFFFFFFDFFFF002C0140FFF7FFFF64
:10262000FFFBFFFFFFCFFFFF0040014000440140E0
:1026300000480140036A144A30B513400362026A3D
:10264000124C4368C56925400C6824022543104C90
:1026500022408C68240322430E4CA04208D00E4C2A
:10266000A04205D00D4CA04202D00D4CA04204D196
:102670000C4C23404C69A401234343604B68C56163
:102680000364026230BDC046FFEFFFFFFF8CFFFF17
:10269000FFDFFFFF002C01400040014000440140EB
:1026A00000480140FFBFFFFF020002230121006834
:1026B0003D32137003680B430360002011707047B4
:1026C00001220368D96800201143D96019680A43C0
:1026D0001A6070477047704770477047022203685E
:1026E00010B51969040011420ED0D96811420BD0FF
:1026F000053A1A619B69043202779B0700D179E0A1
:10270000FFF7E9FF002323770422236819691142A8
:1027100010D0D96811420DD0093A1A6107322277D8
:102720009A69C0239B0020001A4269D0FFF7D3FFAB
:102730000023237708222368196911420ED0D96833
:1027400011420BD0113A1A61DB690D322277200059
:102750009B075BD0FFF7BFFF00232377102223687E
:102760001969114210D0D96811420DD0213A1A616D
:1027700019322277DA69C0239B0020001A424BD01D
:10278000FFF7A9FF0023237701222368196911426B
:1027900007D0D968114204D0033A1A612000FEF72D
:1027A0004BFF802223681969114208D0D968114271
:1027B00005D0023AFF3A1A61200000F0ECF94022FD
:1027C00023681969114207D0D968114204D0813AAF
:1027D0001A612000FFF781FF202223681969114246
:1027E00007D0D968114204D0413A1A61200000F0A4
:1027F000D1F910BDFFF76EFF2000FFF76DFF81E7F5
:10280000FFF768FF2000FFF767FF91E7FFF762FF20
:102810002000FFF761FF9FE7FFF75CFF2000FFF755
:102820005BFFAFE71C4A10B50368904202D01B4C17
:10283000A04208D17024A3434C68234390420ED099
:10284000164CA0420BD0164CA04208D0154CA0420A
:1028500005D0154CA04202D0144CA04203D1144C18
:102860002340CC6823438024A3434C692343036063
:102870008B68C3620B688362904208D0094B984210
:1028800005D0094B984202D0084B984201D10B6900
:1028900003630123436110BD002C0140000400408C
:1028A0000020004000400140004401400048014039
:1028B000FFFCFFFF70B504000120002C14D02500A0
:1028C0003D352B78DBB2002B05D122003C32137052
:1028D000200000F057FE022320682B70211DFFF717
:1028E000A1FF012300202B7070BD70B504000120F2
:1028F000002C14D025003D352B78DBB2002B05D100
:1029000022003C321370200000F010FE02232068E9
:102910002B70211DFFF786FF012300202B7070BD57
:102920001022036A70B593430362026A164D43682E
:1029300084692C400D682D022C432025AA438D6804
:102940002D012A43114DA8420FD18025AA4315001D
:10295000CA6812012A434025AA430D4D4E691D4005
:102960008B6933439B002B4308E00A4DA842F4D007
:10297000094DA842F1D0094DA842EED043604B6802
:1029800084618363026270BDFF8CFFFF002C0140F5
:10299000FFF3FFFF004001400044014000480140B8
:1029A000F8B5060002233C360D003178040018000B
:1029B000012925D0270001213D3731703B700C2AB9
:1029C0001AD81000FDF7AAFB071818181D181818B8
:1029D0002F181818410029002068FFF7A3FD0822CE
:1029E000236899690A4304219A619A698A439A6122
:1029F0009A6929690A439A61012300203B7030706B
:102A0000F8BD29002068FFF78BFF802223681201A0
:102A100099690A439A619A6915490A409A612A6933
:102A200099691202E6E729002068FFF7BFFD082236
:102A30002368D9690A430421DA61DA698A43DA61D1
:102A4000DA6929690A43DA61D6E729002068FFF7C5
:102A5000F1FD802223681201D9690A43DA61DA693B
:102A600003490A40DA612A69D9691202EAE7C046D5
:102A7000FFFBFFFF10B501248C408A40036AA3438B
:102A80000362036A1A43026210BD000010B504001D
:102A900001220068FFF7EEFF23680B4A934208D03B
:102AA0000A4A934205D00A4A934202D0094A934205
:102AB00004D18022596C12020A435A640122196817
:102AC00000200A431A6010BD002C01400040014064
:102AD000004401400048014030B504003C342278F5
:102AE00003000220012A17D01D001B683D35287005
:102AF0005A686E3082435A605A68086849680243CF
:102B000080205A609A6882439A609A6800200A433B
:102B10009A6001232B70207030BD000030B5040096
:102B20003C34237802000220012B24D015003D35CF
:102B30002870114BC86812680340886803430F4827
:102B40000340486803430E480340086803430D48A8
:102B50000340086903430C480340486989690343FB
:102B60000A4803400A480B4303400B4353640020C8
:102B700001232B70207030BDFFFCFFFFFFFBFFFF28
:102B8000FFF7FFFFFFEFFFFFFFDFFFFFFFBFFFFFCD
:102B9000FF7FFFFF70477047036806491A686A3075
:102BA0000A401A609A682331FF318A439A602023D1
:102BB00003707047DFFEFFFF70B50600693633789B
:102BC00004000220202B24D10138002921D0002A22
:102BD0001FD08023A5685B019D4204D12369002B8F
:102BE00001D1014215D1250068352B780220012B37
:102BF0000FD023005033E1645A801A800023212231
:102C00002168E366327008685F32024318002B7057
:102C10000A6070BDF0B506006A3634780300022001
:102C2000202C35D10138002932D0002A30D0802420
:102C30009D686401A54204D11C69002C01D10142A8
:102C400026D11C00683427780220012F20D00138BB
:102C500020705965190058310A804A80802252013B
:102C6000954218D11A69002A13D10E491A005C3214
:102C7000118000202222D8661B6832709968213AA0
:102C80000A4320709A609022196852000A431A6021
:102C9000F0BDFF21EAE7002DEBD11A69002AF8D038
:102CA0007F21E3E7FF01000070477047406A00237F
:102CB000020010B55A321380083A1380FFF7F5FF6F
:102CC00010BD000070B504000568C2698368006922
:102CD0002968034360693F4E03433F481343014063
:102CE0000B432B606B683D49206A0B40E1680B4346
:102CF0006B60A369A9680343394801400B43AB608B
:102D000080231B02B54210D103203649096B0140D4
:102D10003548405C9A4213D0082858D8FDF7FEF990
:102D2000375742574B575757500030498D424CD177
:102D30009A422CD1FFF762FB636840005B080BE00E
:102D4000082821D8FDF7E0F9F620052018202020DA
:102D50001B0063685808264BC0186168FDF7E8F946
:102D600083B200200F22190091430A001B0721683B
:102D70005B0F1343CB6070BDFFF772FADCE763684B
:102D8000580880235B02E7E701200023EAE7FFF70A
:102D900035FB61684B081818FDF7CAF980B2E86086
:102DA0000020E8E76168134B4808C018FDF7C0F938
:102DB00080B2F060F4E7FFF753FA61684B08F4E77C
:102DC000802361681B024808EFE79A42DCD00120AB
:102DD000D1E7C04600380140F369FFFFFFCFFFFF96
:102DE000FFF4FFFF00100240003A000800440040DA
:102DF0000024F40000127A00436A30B5DA0706D5E1
:102E00000168284C4A682240846A22434A609A0733
:102E100006D50168244C4A682240C46A22434A60AD
:102E20005A0706D50168214C4A682240046B2243A8
:102E30004A601A0706D501681D4C4A682240446B57
:102E400022434A60DA0606D501681A4C8A68224095
:102E5000846B22438A609A0606D50168164C8A68FC
:102E60002240C46B22438A605A0610D50168134D74
:102E70004A68046C2A4022434A60802252039442EA
:102E800005D14A680E4C2240446C22434A601B061E
:102E900006D502680B4953680B40816C0B435360A5
:102EA00030BDC046FFFFFDFFFFFFFEFFFFFFFBFF42
:102EB000FF7FFFFFFFEFFFFFFFDFFFFFFFFFEFFFE2
:102EC000FFFF9FFFFFFFF7FF70B5041E01D1012038
:102ED00070BD050069352B78DBB2002B04D10200F0
:102EE0006832137000F096FC2423012122682B70B5
:102EF000136820008B431360FFF7E4FE0128E6D03F
:102F0000636A002B02D02000FFF776FF23680B498D
:102F10005A6800200A4008215A609A688A439A60D9
:102F2000012219680A431A6022002023E0666A32EF
:102F300068342B7013702070CAE7C046FFF7FFFF9C
:102F4000030030B569331B7802000220212B0FD11A
:102F500014005234238811689BB2002B09D10A68EF
:102F60007E3082430A604022086802430A600020E3
:102F700030BD802095684001D36C85420DD1106929
:102F800000280AD118880233C005C00D0885D36413
:102F90002388013B9BB22380E9E7581CD0641B784F
:102FA0000B85F5E74021026810B513688B43136069
:102FB0000300202269331A70FFF776FE002010BD4F
:102FC000020070B56A321178036822292DD1010000
:102FD00080245C310D88998C640129408568436D9B
:102FE000A5421ED10469002C1BD119800233436510
:102FF000010000245A310B88013B9BB20B80A34295
:103000000DD103680C4D1968294019609968233562
:10301000FF35A943996020231370FEF79DFA200025
:1030200070BD5C1C44651970E2E7082299690224AE
:103030000A439A61F3E7C046DFFEFFFF0F2270B537
:1030400004000068C36901681A4008D120252B429A
:1030500005D0294203D02000FFF7B2FF70BD85687C
:10306000002A60D00122154003D19026760031421B
:1030700059D0134205D0CE0503D50262E66E324325
:10308000E2660222134206D0002D04D00262E66EF0
:1030900092183243E2660422134206D0002D04D077
:1030A0000262E66E023A3243E2661A0708D58A06E1
:1030B00001D4002D04D008220262E06E0243E266D1
:1030C000E26E002ACAD02022134204D0114202D05C
:1030D0002000FFF775FFE36E20001B0704D4236870
:1030E0009D6840231D401AD0FFF756FD40212368FC
:1030F0009A680A420FD09A68606E8A439A600028E4
:1031000009D0134B4363FEF7EFFD0028A6D0606E95
:10311000436B9847A2E72000FFF7C7FD9EE7FFF744
:10312000C4FDE5669AE78022134205D0114203D020
:103130002000FFF705FF91E74022134200D18DE701
:10314000114200D18AE72000FFF72CFF86E7C04636
:10315000AD2C000830B585B00C22002101A800F08C
:10316000EAFB2B4C2B4B04222360802362611B065D
:10317000C222002563600123FF322000A560E560C4
:103180002361A561E56125626562A262E56225634E
:103190006363FEF7C5FBA84201D000F03EF980232F
:1031A0005B010293802301A95B0520000195039335
:1031B000FEF7D0FC002801D000F02FF9012301A96F
:1031C00020000193FEF7C6FC002801D000F025F98D
:1031D000022301A920000193FEF7BCFC002801D0C6
:1031E00000F01BF9032301A920000193FEF7B2FCB4
:1031F000002801D000F011F9042301A92000019357
:10320000FEF7A8FC002801D000F007F905B030BD9A
:10321000800000200024014010B5040088B0142272
:10322000002103A800F087FB144B22689A4223D1A7
:103230008020134B800099690143996180219A692C
:10324000890202400192019A5A6990200A435A6108
:103250005B69C0050B400293029B1F2303A90393E4
:103260001C3B0493FEF764FD00220C201100FEF7C6
:10327000E7FC0C20FEF714FD08B010BD002401404F
:1032800000100240F0B58BB01422002105A800F018
:1032900052FB8020344B0003596990270143596148
:1032A0005A69FF05024080200192019A5969C003C2
:1032B000014359615A692D4E024080200292029AC0
:1032C000596980020143596180215A69C90202404B
:1032D0000392039A5A6938000A435A615B690022D3
:1032E0000B400493C021049BFEF7D2FD0022300066
:1032F0000421FEF7CDFDE023002403251B0205A9D0
:103300001B48059306950794FEF712FD194B05A976
:103310003800059306950794FEF70AFDC02305A91A
:1033200005933800BF3B069307940894FEF700FD11
:10333000042305A905933000033B069307940894E2
:10334000FEF7F6FC0C4B05A9300005930695079493
:10335000FEF7EEFCC02305A90848059306950794DF
:10336000FEF7E6FC0BB0F0BD001002400004004880
:10337000000800482090000038FF000000140048BA
:1033800030B595B03022002108A800F0D4FA102200
:103390000021684600F0CFFA1022002104A800F0B6
:1033A000CAFA80235B021193A023012402259B0308
:1033B00008A808940994109512931394FEF76EFDD3
:1033C000002800D0FEE70723029003902100684602
:1033D00000930195FEF776FF002800D0FEE70690E7
:1033E00004A80494FFF71AF8002800D0FEE715B0EF
:1033F00030BD10B5FEF776FAFFF7C2FFFFF742FFC8
:1034000000F01EF9FFF7A6FE00F0E8F900F098F9C9
:1034100000F074F8FEF786F8FEE7FEE701200A4B9D
:1034200082B099690143996180219A6949050240F6
:103430000092009ADA690A43DA61DB690B40019372
:10344000019B02B07047C046001002407047FEE783
:103450007047704710B5FEF755FA10BD10B5024819
:10346000FEF708FB10BDC0468000002010B50248E2
:10347000FFF734F910BDC0464C01002010B50248DA
:10348000FFF72CF910BDC0460C01002010B5024812
:10349000FFF7D4FD10BDC0468C0100200121114B67
:1034A00011481A680A431A605A6802405A601A683A
:1034B0000E4802401A601A680D4802401A605A68A5
:1034C0000C4802400F205A60DA6A8243DA621A6BB3
:1034D000094802401A635A6B8A435A6300229A6071
:1034E0007047C046001002400CB8FF08FFFFF6FE10
:1034F000FFFFFBFFFFFFC0FFECFEFFFF0848094B8B
:1035000010B503602F2343600023074A8360C26025
:103510008361FFF7CFF9002801D0FFF77EFF10BDD0
:103520000C010020001000401F4E000007B503688A
:10353000114A934212D18020104A0001916901433F
:10354000916193690022034000930D201100009BBC
:10355000FEF776FB0D20FEF7A3FB07BD084A93425A
:10356000FBD10220054AD1690143D161D3690340EF
:103570000193019BF1E7C046002C0140001002407E
:103580000004004007B50B4B02689A4210D110208E
:10359000094AD1690143D161D369002203400193F3
:1035A00001301100019BFEF74BFB1120FEF778FB69
:1035B00007BDC046001000400010024010B50400D6
:1035C00088B01422002103A800F0B5F92368184A36
:1035D000934216D18020174A8002516901435161FC
:1035E000536903A903400193019BF0231B0103933B
:1035F00090200223C00504930793FEF799FB08B0BF
:1036000010BD0D4A9342FAD180200A4AC002516986
:1036100001435161536903A903400293029B0323B1
:103620000393013B0493013B07930448E5E7C0463D
:10363000002C01400010024000040040000400483B
:1036400030B591B008220021684600F074F91C22C0
:10365000002102A800F06FF91C22002109A800F047
:103660006AF9354C354B002523602023A360D53300
:10367000FF3320006560E36025616561A561FFF7A8
:1036800034F9A84201D0FFF7C8FE69462000009532
:103690000195FFF721FA002801D0FFF7BEFE602355
:1036A00000220293F933FF3302A92000039304920E
:1036B0000592069207920892FFF772F9002801D04E
:1036C000FFF7ABFE0223042202A920000493FFF7B8
:1036D00067F9002801D0FFF7A0FE0023082202A905
:1036E000200003930493FFF75BF9002801D0FFF754
:1036F00094FE02230C2202A920000493FFF750F944
:10370000002801D0FFF789FE80220023920109A939
:10371000200009930A930B930C930D930E920F9331
:10372000FFF7FCF9002801D0FFF777FE2000FFF734
:1037300045FF11B030BDC0464C010020002C0140B7
:1037400030B58BB00822002101A800F0F4F81C224B
:10375000002103A800F0EFF81D4C1E4B002523604C
:103760001D4B2000636096231B01E36080239B00B8
:10377000A5602361A561FFF7B8F8A84201D0FFF763
:103780004CFE01A9200001950295FFF7A5F900283C
:1037900001D0FFF742FE602303930023082203A910
:1037A0002000049305930793FFF7FAF8002801D04F
:1037B000FFF733FE0C2203A92000FFF7F1F80028E1
:1037C00001D0FFF72AFE2000FFF7F8FE0BB030BD56
:1037D000CC00002000040040102700000B480C4BD8
:1037E00010B50360E1235B0243600C2200234261B9
:1037F0008360C36003618361C36103624362FFF757
:1038000063FB002801D0FFF708FE10BD8C010020EB
:103810000038014010B5040088B01422002103A82C
:1038200000F089F8154B22689A4224D18020144B6D
:10383000C00199690143996180219A69C9020240D6
:103840000192019A5A690F480A435A615B690B4019
:103850000293029BC0230393BE3B049303A901334D
:103860000693FEF765FA00221B201100FEF7E8F927
:103870001B20FEF715FA08B010BDC0460038014005
:1038800000100240000400480D4885460D480E49CE
:103890000E4A002302E0D458C4500433C4188C42AA
:1038A000F9D30B4A0B4C002301E013600432A2420F
:1038B000FBD3FFF7F3FD00F011F8FFF79AFDFEE7E9
:1038C00000200020000000200C000020243A000806
:1038D0000C000020FC010020FEE7000070B500266F
:1038E0000C4D0D4C641BA410A64209D1002600F01B
:1038F0002BF80A4D0A4C641BA410A64205D170BDDA
:10390000B300EB5898470136EEE7B300EB58984701
:103910000136F2E71C3A00081C3A00081C3A00087D
:10392000203A0008002310B59A4200D110BDCC5CAB
:10393000C4540133F8E703008218934200D1704762
:1039400019700133F9E70000F8B5C046F8BC08BCAF
:103950009E467047F8B5C046F8BC08BC9E46704706
:1039600002030405060708090A0B0C0D0E0F1010C0
:103970000102030405060708090A0B0C0D0E0F10BF
:103980005C080008AC070008AC070008AA0700089C
:103990004E0800084E08000844080008AA0700085E
:1039A0004E080008440800084E080008AA0700084E
:1039B000540800085408000854080008E4080008E7
:1039C000E00E0008C20E00087C0E00089A0D0008E8
:1039D0007C0E0008B40E00087C0E00089A0D00084A
:1039E000C20E0008C20E0008B40E00089A0D0008AE
:1039F000920D0008920D0008920D0008F8100008C2
:103A0000000408020000000000000000010203049E
:0C3A100006070809000000000102030482
:043A1C00E9000008B5
:043A2000C1000008D9
:0C3A240050696E67210D0A0000127A0044
:04000005080038892E
:00000001FF
